{"contracts/MarketFactory.sol":{"MarketFactory":{"abi":[{"inputs":[],"stateMutability":"nonpayable","type":"constructor"},{"anonymous":false,"inputs":[{"indexed":false,"internalType":"uint256","name":"marketId","type":"uint256"},{"indexed":false,"internalType":"address","name":"marketAddress","type":"address"}],"name":"MarketCreated","type":"event"},{"inputs":[{"internalType":"string","name":"description","type":"string"},{"internalType":"string","name":"marketType","type":"string"},{"internalType":"string[]","name":"options","type":"string[]"}],"name":"createMarket","outputs":[{"internalType":"uint256","name":"","type":"uint256"}],"stateMutability":"nonpayable","type":"function"},{"inputs":[{"internalType":"uint256","name":"","type":"uint256"}],"name":"markets","outputs":[{"internalType":"address","name":"","type":"address"}],"stateMutability":"view","type":"function"},{"inputs":[],"name":"nextMarketId","outputs":[{"internalType":"uint256","name":"","type":"uint256"}],"stateMutability":"view","type":"function"},{"inputs":[],"name":"owner","outputs":[{"internalType":"address","name":"","type":"address"}],"stateMutability":"view","type":"function"},{"inputs":[{"internalType":"uint256","name":"marketId","type":"uint256"},{"components":[{"internalType":"string","name":"description","type":"string"},{"internalType":"uint256","name":"currentPrice","type":"uint256"},{"internalType":"uint256","name":"totalLiquidity","type":"uint256"},{"internalType":"bool","name":"resolved","type":"bool"},{"internalType":"string","name":"outcome","type":"string"}],"internalType":"struct MarketFactory.MarketState","name":"state","type":"tuple"}],"name":"updateMarketState","outputs":[],"stateMutability":"nonpayable","type":"function"}],"evm":{"bytecode":{"linkReferences":{},"object":"608060405234801561001057600080fd5b50600080546001600160a01b03191633179055611564806100326000396000f3fe60806040523480156200001157600080fd5b50600436106200005e5760003560e01c8063406ef2ef14620000635780636be4091814620000805780638da5cb5b14620000995780639b47a7cb14620000c6578063b1283e7714620000dd575b600080fd5b6200006d60015481565b6040519081526020015b60405180910390f35b6200009762000091366004620003f5565b62000109565b005b600054620000ad906001600160a01b031681565b6040516001600160a01b03909116815260200162000077565b6200006d620000d7366004620004ca565b62000231565b620000ad620000ee366004620005e8565b6002602052600090815260409020546001600160a01b031681565b6000546001600160a01b03163314620001555760405162461bcd60e51b81526020600482015260096024820152682737ba1037bbb732b960b91b60448201526064015b60405180910390fd5b6000828152600260205260409020546001600160a01b031680620001af5760405162461bcd60e51b815260206004820152601060248201526f13585c9ad95d081b9bdd08199bdd5b9960821b60448201526064016200014c565b602082015160408084015160608501516080860151925163019f3cb360e61b815285946001600160a01b038616946367cf2cc094620001f7949293909291906004016200064a565b600060405180830381600087803b1580156200021257600080fd5b505af115801562000227573d6000803e3d6000fd5b5050505050505050565b6000808484846040516200024590620002fa565b62000253939291906200067d565b604051809103906000f08015801562000270573d6000803e3d6000fd5b5060018054919250600091908262000288836200070c565b9091555060008181526002602090815260409182902080546001600160a01b0319166001600160a01b0387169081179091558251848152918201529192507fd301e501188d220cc44d05fa5ee3c14454746932c7d6598933e7fddc78bea7f0910160405180910390a195945050505050565b610dfa806200073583390190565b634e487b7160e01b600052604160045260246000fd5b60405160a0810167ffffffffffffffff8111828210171562000344576200034462000308565b60405290565b604051601f8201601f1916810167ffffffffffffffff8111828210171562000376576200037662000308565b604052919050565b600082601f8301126200039057600080fd5b813567ffffffffffffffff811115620003ad57620003ad62000308565b620003c2601f8201601f19166020016200034a565b818152846020838601011115620003d857600080fd5b816020850160208301376000918101602001919091529392505050565b600080604083850312156200040957600080fd5b82359150602083013567ffffffffffffffff808211156200042957600080fd5b9084019060a082870312156200043e57600080fd5b620004486200031e565b8235828111156200045857600080fd5b62000466888286016200037e565b8252506020830135602082015260408301356040820152606083013580151581146200049157600080fd5b6060820152608083013582811115620004a957600080fd5b620004b7888286016200037e565b6080830152508093505050509250929050565b600080600060608486031215620004e057600080fd5b833567ffffffffffffffff80821115620004f957600080fd5b62000507878388016200037e565b94506020915081860135818111156200051f57600080fd5b6200052d888289016200037e565b9450506040860135818111156200054357600080fd5b8601601f810188136200055557600080fd5b8035828111156200056a576200056a62000308565b8060051b6200057b8582016200034a565b918252828101850191858101908b8411156200059657600080fd5b86850192505b83831015620005d757823586811115620005b65760008081fd5b620005c68d89838901016200037e565b83525091860191908601906200059c565b809750505050505050509250925092565b600060208284031215620005fb57600080fd5b5035919050565b6000815180845260005b818110156200062a576020818501810151868301820152016200060c565b506000602082860101526020601f19601f83011685010191505092915050565b848152836020820152821515604082015260806060820152600062000673608083018462000602565b9695505050505050565b60608152600062000692606083018662000602565b602083820381850152620006a7828762000602565b915083820360408501528185518084528284019150828160051b85010183880160005b83811015620006fc57601f19878403018552620006e983835162000602565b94860194925090850190600101620006ca565b50909a9950505050505050505050565b6000600182016200072d57634e487b7160e01b600052601160045260246000fd5b506001019056fe60806040523480156200001157600080fd5b5060405162000dfa38038062000dfa8339810160408190526200003491620002cb565b600080546001600160a01b031916331781556040805160e0810182528581526020808201869052818301859052606082018490526080820184905260a08201849052825190810190925291815260c08201528051600190819062000099908262000477565b5060208201516001820190620000b0908262000477565b5060408201518051620000ce9160028401916020909101906200011e565b50606082015160038201556080820151600482015560a082015160058201805460ff191691151591909117905560c0820151600682019062000111908262000477565b5090505050505062000543565b82805482825590600052602060002090810192821562000169579160200282015b8281111562000169578251829062000158908262000477565b50916020019190600101906200013f565b50620001779291506200017b565b5090565b80821115620001775760006200019282826200019c565b506001016200017b565b508054620001aa90620003e8565b6000825580601f10620001bb575050565b601f016020900490600052602060002090810190620001db9190620001de565b50565b5b80821115620001775760008155600101620001df565b634e487b7160e01b600052604160045260246000fd5b604051601f8201601f191681016001600160401b0381118282101715620002365762000236620001f5565b604052919050565b600082601f8301126200025057600080fd5b81516001600160401b038111156200026c576200026c620001f5565b602062000282601f8301601f191682016200020b565b82815285828487010111156200029757600080fd5b60005b83811015620002b75785810183015182820184015282016200029a565b506000928101909101919091529392505050565b600080600060608486031215620002e157600080fd5b83516001600160401b0380821115620002f957600080fd5b62000307878388016200023e565b94506020915081860151818111156200031f57600080fd5b6200032d888289016200023e565b9450506040860151818111156200034357600080fd5b8601601f810188136200035557600080fd5b8051828111156200036a576200036a620001f5565b8060051b6200037b8582016200020b565b918252828101850191858101908b8411156200039657600080fd5b86850192505b83831015620003d757825186811115620003b65760008081fd5b620003c68d89838901016200023e565b83525091860191908601906200039c565b809750505050505050509250925092565b600181811c90821680620003fd57607f821691505b6020821081036200041e57634e487b7160e01b600052602260045260246000fd5b50919050565b601f8211156200047257600081815260208120601f850160051c810160208610156200044d5750805b601f850160051c820191505b818110156200046e5782815560010162000459565b5050505b505050565b81516001600160401b03811115620004935762000493620001f5565b620004ab81620004a48454620003e8565b8462000424565b602080601f831160018114620004e35760008415620004ca5750858301515b600019600386901b1c1916600185901b1785556200046e565b600085815260208120601f198616915b828110156200051457888601518255948401946001909101908401620004f3565b5085821015620005335787850151600019600388901b60f8161c191681555b5050505050600190811b01905550565b6108a780620005536000396000f3fe608060405234801561001057600080fd5b50600436106100575760003560e01c806367cf2cc01461005c57806380f55605146100715780638da5cb5b14610094578063b68eb460146100bf578063e7b1797514610109575b600080fd5b61006f61006a3660046104e8565b61011c565b005b610079610192565b60405161008b969594939291906105a0565b60405180910390f35b6000546100a7906001600160a01b031681565b6040516001600160a01b03909116815260200161008b565b6100fb6100cd3660046105fa565b6008602090815260009283526040909220815180830184018051928152908401929093019190912091525481565b60405190815260200161008b565b61006f610117366004610656565b61035b565b6000546001600160a01b031633146101675760405162461bcd60e51b81526020600482015260096024820152682737ba1037bbb732b960b91b60448201526064015b60405180910390fd5b600484905560058390556006805460ff1916831515179055600761018b828261072d565b5050505050565b6001805481906101a1906106a4565b80601f01602080910402602001604051908101604052809291908181526020018280546101cd906106a4565b801561021a5780601f106101ef5761010080835404028352916020019161021a565b820191906000526020600020905b8154815290600101906020018083116101fd57829003601f168201915b50505050509080600101805461022f906106a4565b80601f016020809104026020016040519081016040528092919081815260200182805461025b906106a4565b80156102a85780601f1061027d576101008083540402835291602001916102a8565b820191906000526020600020905b81548152906001019060200180831161028b57829003601f168201915b5050506003840154600485015460058601546006870180549697939692955060ff9091169350906102d8906106a4565b80601f0160208091040260200160405190810160405280929190818152602001828054610304906106a4565b80156103515780601f1061032657610100808354040283529160200191610351565b820191906000526020600020905b81548152906001019060200180831161033457829003601f168201915b5050505050905086565b60065460ff16156103a35760405162461bcd60e51b815260206004820152601260248201527113585c9ad95d081a5cc81c995cdbdb1d995960721b604482015260640161015e565b336000908152600860205260409081902090518391906103c49086906107ed565b908152602001604051809103902060008282546103e19190610809565b9091555050600580548391906000906103fb908490610809565b90915550506040517f67ffcf165e303e08af6b15e3d1415739b26806a78f61f0ae0fb52e1236fdfffe906104389033908690869086904290610830565b60405180910390a1505050565b634e487b7160e01b600052604160045260246000fd5b600082601f83011261046c57600080fd5b813567ffffffffffffffff8082111561048757610487610445565b604051601f8301601f19908116603f011681019082821181831017156104af576104af610445565b816040528381528660208588010111156104c857600080fd5b836020870160208301376000602085830101528094505050505092915050565b600080600080608085870312156104fe57600080fd5b84359350602085013592506040850135801515811461051c57600080fd5b9150606085013567ffffffffffffffff81111561053857600080fd5b6105448782880161045b565b91505092959194509250565b60005b8381101561056b578181015183820152602001610553565b50506000910152565b6000815180845261058c816020860160208601610550565b601f01601f19169290920160200192915050565b60c0815260006105b360c0830189610574565b82810360208401526105c58189610574565b9050866040840152856060840152841515608084015282810360a08401526105ed8185610574565b9998505050505050505050565b6000806040838503121561060d57600080fd5b82356001600160a01b038116811461062457600080fd5b9150602083013567ffffffffffffffff81111561064057600080fd5b61064c8582860161045b565b9150509250929050565b60008060006060848603121561066b57600080fd5b833567ffffffffffffffff81111561068257600080fd5b61068e8682870161045b565b9660208601359650604090950135949350505050565b600181811c908216806106b857607f821691505b6020821081036106d857634e487b7160e01b600052602260045260246000fd5b50919050565b601f82111561072857600081815260208120601f850160051c810160208610156107055750805b601f850160051c820191505b8181101561072457828155600101610711565b5050505b505050565b815167ffffffffffffffff81111561074757610747610445565b61075b8161075584546106a4565b846106de565b602080601f83116001811461079057600084156107785750858301515b600019600386901b1c1916600185901b178555610724565b600085815260208120601f198616915b828110156107bf578886015182559484019460019091019084016107a0565b50858210156107dd5787850151600019600388901b60f8161c191681555b5050505050600190811b01905550565b600082516107ff818460208701610550565b9190910192915050565b8082018082111561082a57634e487b7160e01b600052601160045260246000fd5b92915050565b6001600160a01b038616815260a06020820181905260009061085490830187610574565b60408301959095525060608101929092526080909101529291505056fea2646970667358221220cd16b50a8033db24c34f360764c7fa3092263623ff375db526846f9a7cea4cef64736f6c63430008140033a2646970667358221220ff2b13b5b329f0e1ae591d5f5730eba5c06a45f8f94ada187750af7bbfe60d6364736f6c63430008140033","opcodes":"PUSH1 0x80 PUSH1 0x40 MSTORE CALLVALUE DUP1 ISZERO PUSH2 0x10 JUMPI PUSH1 0x0 DUP1 REVERT JUMPDEST POP PUSH1 0x0 DUP1 SLOAD PUSH1 0x1 PUSH1 0x1 PUSH1 0xA0 SHL SUB NOT AND CALLER OR SWAP1 SSTORE PUSH2 0x1564 DUP1 PUSH2 0x32 PUSH1 0x0 CODECOPY PUSH1 0x0 RETURN INVALID PUSH1 0x80 PUSH1 0x40 MSTORE CALLVALUE DUP1 ISZERO PUSH3 0x11 JUMPI PUSH1 0x0 DUP1 REVERT JUMPDEST POP PUSH1 0x4 CALLDATASIZE LT PUSH3 0x5E JUMPI PUSH1 0x0 CALLDATALOAD PUSH1 0xE0 SHR DUP1 PUSH4 0x406EF2EF EQ PUSH3 0x63 JUMPI DUP1 PUSH4 0x6BE40918 EQ PUSH3 0x80 JUMPI DUP1 PUSH4 0x8DA5CB5B EQ PUSH3 0x99 JUMPI DUP1 PUSH4 0x9B47A7CB EQ PUSH3 0xC6 JUMPI DUP1 PUSH4 0xB1283E77 EQ PUSH3 0xDD JUMPI JUMPDEST PUSH1 0x0 DUP1 REVERT JUMPDEST PUSH3 0x6D PUSH1 0x1 SLOAD DUP2 JUMP JUMPDEST PUSH1 0x40 MLOAD SWAP1 DUP2 MSTORE PUSH1 0x20 ADD JUMPDEST PUSH1 0x40 MLOAD DUP1 SWAP2 SUB SWAP1 RETURN JUMPDEST PUSH3 0x97 PUSH3 0x91 CALLDATASIZE PUSH1 0x4 PUSH3 0x3F5 JUMP JUMPDEST PUSH3 0x109 JUMP JUMPDEST STOP JUMPDEST PUSH1 0x0 SLOAD PUSH3 0xAD SWAP1 PUSH1 0x1 PUSH1 0x1 PUSH1 0xA0 SHL SUB AND DUP2 JUMP JUMPDEST PUSH1 0x40 MLOAD PUSH1 0x1 PUSH1 0x1 PUSH1 0xA0 SHL SUB SWAP1 SWAP2 AND DUP2 MSTORE PUSH1 0x20 ADD PUSH3 0x77 JUMP JUMPDEST PUSH3 0x6D PUSH3 0xD7 CALLDATASIZE PUSH1 0x4 PUSH3 0x4CA JUMP JUMPDEST PUSH3 0x231 JUMP JUMPDEST PUSH3 0xAD PUSH3 0xEE CALLDATASIZE PUSH1 0x4 PUSH3 0x5E8 JUMP JUMPDEST PUSH1 0x2 PUSH1 0x20 MSTORE PUSH1 0x0 SWAP1 DUP2 MSTORE PUSH1 0x40 SWAP1 KECCAK256 SLOAD PUSH1 0x1 PUSH1 0x1 PUSH1 0xA0 SHL SUB AND DUP2 JUMP JUMPDEST PUSH1 0x0 SLOAD PUSH1 0x1 PUSH1 0x1 PUSH1 0xA0 SHL SUB AND CALLER EQ PUSH3 0x155 JUMPI PUSH1 0x40 MLOAD PUSH3 0x461BCD PUSH1 0xE5 SHL DUP2 MSTORE PUSH1 0x20 PUSH1 0x4 DUP3 ADD MSTORE PUSH1 0x9 PUSH1 0x24 DUP3 ADD MSTORE PUSH9 0x2737BA1037BBB732B9 PUSH1 0xB9 SHL PUSH1 0x44 DUP3 ADD MSTORE PUSH1 0x64 ADD JUMPDEST PUSH1 0x40 MLOAD DUP1 SWAP2 SUB SWAP1 REVERT JUMPDEST PUSH1 0x0 DUP3 DUP2 MSTORE PUSH1 0x2 PUSH1 0x20 MSTORE PUSH1 0x40 SWAP1 KECCAK256 SLOAD PUSH1 0x1 PUSH1 0x1 PUSH1 0xA0 SHL SUB AND DUP1 PUSH3 0x1AF JUMPI PUSH1 0x40 MLOAD PUSH3 0x461BCD PUSH1 0xE5 SHL DUP2 MSTORE PUSH1 0x20 PUSH1 0x4 DUP3 ADD MSTORE PUSH1 0x10 PUSH1 0x24 DUP3 ADD MSTORE PUSH16 0x13585C9AD95D081B9BDD08199BDD5B99 PUSH1 0x82 SHL PUSH1 0x44 DUP3 ADD MSTORE PUSH1 0x64 ADD PUSH3 0x14C JUMP JUMPDEST PUSH1 0x20 DUP3 ADD MLOAD PUSH1 0x40 DUP1 DUP5 ADD MLOAD PUSH1 0x60 DUP6 ADD MLOAD PUSH1 0x80 DUP7 ADD MLOAD SWAP3 MLOAD PUSH4 0x19F3CB3 PUSH1 0xE6 SHL DUP2 MSTORE DUP6 SWAP5 PUSH1 0x1 PUSH1 0x1 PUSH1 0xA0 SHL SUB DUP7 AND SWAP5 PUSH4 0x67CF2CC0 SWAP5 PUSH3 0x1F7 SWAP5 SWAP3 SWAP4 SWAP1 SWAP3 SWAP2 SWAP1 PUSH1 0x4 ADD PUSH3 0x64A JUMP JUMPDEST PUSH1 0x0 PUSH1 0x40 MLOAD DUP1 DUP4 SUB DUP2 PUSH1 0x0 DUP8 DUP1 EXTCODESIZE ISZERO DUP1 ISZERO PUSH3 0x212 JUMPI PUSH1 0x0 DUP1 REVERT JUMPDEST POP GAS CALL ISZERO DUP1 ISZERO PUSH3 0x227 JUMPI RETURNDATASIZE PUSH1 0x0 DUP1 RETURNDATACOPY RETURNDATASIZE PUSH1 0x0 REVERT JUMPDEST POP POP POP POP POP POP POP POP JUMP JUMPDEST PUSH1 0x0 DUP1 DUP5 DUP5 DUP5 PUSH1 0x40 MLOAD PUSH3 0x245 SWAP1 PUSH3 0x2FA JUMP JUMPDEST PUSH3 0x253 SWAP4 SWAP3 SWAP2 SWAP1 PUSH3 0x67D JUMP JUMPDEST PUSH1 0x40 MLOAD DUP1 SWAP2 SUB SWAP1 PUSH1 0x0 CREATE DUP1 ISZERO DUP1 ISZERO PUSH3 0x270 JUMPI RETURNDATASIZE PUSH1 0x0 DUP1 RETURNDATACOPY RETURNDATASIZE PUSH1 0x0 REVERT JUMPDEST POP PUSH1 0x1 DUP1 SLOAD SWAP2 SWAP3 POP PUSH1 0x0 SWAP2 SWAP1 DUP3 PUSH3 0x288 DUP4 PUSH3 0x70C JUMP JUMPDEST SWAP1 SWAP2 SSTORE POP PUSH1 0x0 DUP2 DUP2 MSTORE PUSH1 0x2 PUSH1 0x20 SWAP1 DUP2 MSTORE PUSH1 0x40 SWAP2 DUP3 SWAP1 KECCAK256 DUP1 SLOAD PUSH1 0x1 PUSH1 0x1 PUSH1 0xA0 SHL SUB NOT AND PUSH1 0x1 PUSH1 0x1 PUSH1 0xA0 SHL SUB DUP8 AND SWAP1 DUP2 OR SWAP1 SWAP2 SSTORE DUP3 MLOAD DUP5 DUP2 MSTORE SWAP2 DUP3 ADD MSTORE SWAP2 SWAP3 POP PUSH32 0xD301E501188D220CC44D05FA5EE3C14454746932C7D6598933E7FDDC78BEA7F0 SWAP2 ADD PUSH1 0x40 MLOAD DUP1 SWAP2 SUB SWAP1 LOG1 SWAP6 SWAP5 POP POP POP POP POP JUMP JUMPDEST PUSH2 0xDFA DUP1 PUSH3 0x735 DUP4 CODECOPY ADD SWAP1 JUMP JUMPDEST PUSH4 0x4E487B71 PUSH1 0xE0 SHL PUSH1 0x0 MSTORE PUSH1 0x41 PUSH1 0x4 MSTORE PUSH1 0x24 PUSH1 0x0 REVERT JUMPDEST PUSH1 0x40 MLOAD PUSH1 0xA0 DUP2 ADD PUSH8 0xFFFFFFFFFFFFFFFF DUP2 GT DUP3 DUP3 LT OR ISZERO PUSH3 0x344 JUMPI PUSH3 0x344 PUSH3 0x308 JUMP JUMPDEST PUSH1 0x40 MSTORE SWAP1 JUMP JUMPDEST PUSH1 0x40 MLOAD PUSH1 0x1F DUP3 ADD PUSH1 0x1F NOT AND DUP2 ADD PUSH8 0xFFFFFFFFFFFFFFFF DUP2 GT DUP3 DUP3 LT OR ISZERO PUSH3 0x376 JUMPI PUSH3 0x376 PUSH3 0x308 JUMP JUMPDEST PUSH1 0x40 MSTORE SWAP2 SWAP1 POP JUMP JUMPDEST PUSH1 0x0 DUP3 PUSH1 0x1F DUP4 ADD SLT PUSH3 0x390 JUMPI PUSH1 0x0 DUP1 REVERT JUMPDEST DUP2 CALLDATALOAD PUSH8 0xFFFFFFFFFFFFFFFF DUP2 GT ISZERO PUSH3 0x3AD JUMPI PUSH3 0x3AD PUSH3 0x308 JUMP JUMPDEST PUSH3 0x3C2 PUSH1 0x1F DUP3 ADD PUSH1 0x1F NOT AND PUSH1 0x20 ADD PUSH3 0x34A JUMP JUMPDEST DUP2 DUP2 MSTORE DUP5 PUSH1 0x20 DUP4 DUP7 ADD ADD GT ISZERO PUSH3 0x3D8 JUMPI PUSH1 0x0 DUP1 REVERT JUMPDEST DUP2 PUSH1 0x20 DUP6 ADD PUSH1 0x20 DUP4 ADD CALLDATACOPY PUSH1 0x0 SWAP2 DUP2 ADD PUSH1 0x20 ADD SWAP2 SWAP1 SWAP2 MSTORE SWAP4 SWAP3 POP POP POP JUMP JUMPDEST PUSH1 0x0 DUP1 PUSH1 0x40 DUP4 DUP6 SUB SLT ISZERO PUSH3 0x409 JUMPI PUSH1 0x0 DUP1 REVERT JUMPDEST DUP3 CALLDATALOAD SWAP2 POP PUSH1 0x20 DUP4 ADD CALLDATALOAD PUSH8 0xFFFFFFFFFFFFFFFF DUP1 DUP3 GT ISZERO PUSH3 0x429 JUMPI PUSH1 0x0 DUP1 REVERT JUMPDEST SWAP1 DUP5 ADD SWAP1 PUSH1 0xA0 DUP3 DUP8 SUB SLT ISZERO PUSH3 0x43E JUMPI PUSH1 0x0 DUP1 REVERT JUMPDEST PUSH3 0x448 PUSH3 0x31E JUMP JUMPDEST DUP3 CALLDATALOAD DUP3 DUP2 GT ISZERO PUSH3 0x458 JUMPI PUSH1 0x0 DUP1 REVERT JUMPDEST PUSH3 0x466 DUP9 DUP3 DUP7 ADD PUSH3 0x37E JUMP JUMPDEST DUP3 MSTORE POP PUSH1 0x20 DUP4 ADD CALLDATALOAD PUSH1 0x20 DUP3 ADD MSTORE PUSH1 0x40 DUP4 ADD CALLDATALOAD PUSH1 0x40 DUP3 ADD MSTORE PUSH1 0x60 DUP4 ADD CALLDATALOAD DUP1 ISZERO ISZERO DUP2 EQ PUSH3 0x491 JUMPI PUSH1 0x0 DUP1 REVERT JUMPDEST PUSH1 0x60 DUP3 ADD MSTORE PUSH1 0x80 DUP4 ADD CALLDATALOAD DUP3 DUP2 GT ISZERO PUSH3 0x4A9 JUMPI PUSH1 0x0 DUP1 REVERT JUMPDEST PUSH3 0x4B7 DUP9 DUP3 DUP7 ADD PUSH3 0x37E JUMP JUMPDEST PUSH1 0x80 DUP4 ADD MSTORE POP DUP1 SWAP4 POP POP POP POP SWAP3 POP SWAP3 SWAP1 POP JUMP JUMPDEST PUSH1 0x0 DUP1 PUSH1 0x0 PUSH1 0x60 DUP5 DUP7 SUB SLT ISZERO PUSH3 0x4E0 JUMPI PUSH1 0x0 DUP1 REVERT JUMPDEST DUP4 CALLDATALOAD PUSH8 0xFFFFFFFFFFFFFFFF DUP1 DUP3 GT ISZERO PUSH3 0x4F9 JUMPI PUSH1 0x0 DUP1 REVERT JUMPDEST PUSH3 0x507 DUP8 DUP4 DUP9 ADD PUSH3 0x37E JUMP JUMPDEST SWAP5 POP PUSH1 0x20 SWAP2 POP DUP2 DUP7 ADD CALLDATALOAD DUP2 DUP2 GT ISZERO PUSH3 0x51F JUMPI PUSH1 0x0 DUP1 REVERT JUMPDEST PUSH3 0x52D DUP9 DUP3 DUP10 ADD PUSH3 0x37E JUMP JUMPDEST SWAP5 POP POP PUSH1 0x40 DUP7 ADD CALLDATALOAD DUP2 DUP2 GT ISZERO PUSH3 0x543 JUMPI PUSH1 0x0 DUP1 REVERT JUMPDEST DUP7 ADD PUSH1 0x1F DUP2 ADD DUP9 SGT PUSH3 0x555 JUMPI PUSH1 0x0 DUP1 REVERT JUMPDEST DUP1 CALLDATALOAD DUP3 DUP2 GT ISZERO PUSH3 0x56A JUMPI PUSH3 0x56A PUSH3 0x308 JUMP JUMPDEST DUP1 PUSH1 0x5 SHL PUSH3 0x57B DUP6 DUP3 ADD PUSH3 0x34A JUMP JUMPDEST SWAP2 DUP3 MSTORE DUP3 DUP2 ADD DUP6 ADD SWAP2 DUP6 DUP2 ADD SWAP1 DUP12 DUP5 GT ISZERO PUSH3 0x596 JUMPI PUSH1 0x0 DUP1 REVERT JUMPDEST DUP7 DUP6 ADD SWAP3 POP JUMPDEST DUP4 DUP4 LT ISZERO PUSH3 0x5D7 JUMPI DUP3 CALLDATALOAD DUP7 DUP2 GT ISZERO PUSH3 0x5B6 JUMPI PUSH1 0x0 DUP1 DUP2 REVERT JUMPDEST PUSH3 0x5C6 DUP14 DUP10 DUP4 DUP10 ADD ADD PUSH3 0x37E JUMP JUMPDEST DUP4 MSTORE POP SWAP2 DUP7 ADD SWAP2 SWAP1 DUP7 ADD SWAP1 PUSH3 0x59C JUMP JUMPDEST DUP1 SWAP8 POP POP POP POP POP POP POP POP SWAP3 POP SWAP3 POP SWAP3 JUMP JUMPDEST PUSH1 0x0 PUSH1 0x20 DUP3 DUP5 SUB SLT ISZERO PUSH3 0x5FB JUMPI PUSH1 0x0 DUP1 REVERT JUMPDEST POP CALLDATALOAD SWAP2 SWAP1 POP JUMP JUMPDEST PUSH1 0x0 DUP2 MLOAD DUP1 DUP5 MSTORE PUSH1 0x0 JUMPDEST DUP2 DUP2 LT ISZERO PUSH3 0x62A JUMPI PUSH1 0x20 DUP2 DUP6 ADD DUP2 ADD MLOAD DUP7 DUP4 ADD DUP3 ADD MSTORE ADD PUSH3 0x60C JUMP JUMPDEST POP PUSH1 0x0 PUSH1 0x20 DUP3 DUP7 ADD ADD MSTORE PUSH1 0x20 PUSH1 0x1F NOT PUSH1 0x1F DUP4 ADD AND DUP6 ADD ADD SWAP2 POP POP SWAP3 SWAP2 POP POP JUMP JUMPDEST DUP5 DUP2 MSTORE DUP4 PUSH1 0x20 DUP3 ADD MSTORE DUP3 ISZERO ISZERO PUSH1 0x40 DUP3 ADD MSTORE PUSH1 0x80 PUSH1 0x60 DUP3 ADD MSTORE PUSH1 0x0 PUSH3 0x673 PUSH1 0x80 DUP4 ADD DUP5 PUSH3 0x602 JUMP JUMPDEST SWAP7 SWAP6 POP POP POP POP POP POP JUMP JUMPDEST PUSH1 0x60 DUP2 MSTORE PUSH1 0x0 PUSH3 0x692 PUSH1 0x60 DUP4 ADD DUP7 PUSH3 0x602 JUMP JUMPDEST PUSH1 0x20 DUP4 DUP3 SUB DUP2 DUP6 ADD MSTORE PUSH3 0x6A7 DUP3 DUP8 PUSH3 0x602 JUMP JUMPDEST SWAP2 POP DUP4 DUP3 SUB PUSH1 0x40 DUP6 ADD MSTORE DUP2 DUP6 MLOAD DUP1 DUP5 MSTORE DUP3 DUP5 ADD SWAP2 POP DUP3 DUP2 PUSH1 0x5 SHL DUP6 ADD ADD DUP4 DUP9 ADD PUSH1 0x0 JUMPDEST DUP4 DUP2 LT ISZERO PUSH3 0x6FC JUMPI PUSH1 0x1F NOT DUP8 DUP5 SUB ADD DUP6 MSTORE PUSH3 0x6E9 DUP4 DUP4 MLOAD PUSH3 0x602 JUMP JUMPDEST SWAP5 DUP7 ADD SWAP5 SWAP3 POP SWAP1 DUP6 ADD SWAP1 PUSH1 0x1 ADD PUSH3 0x6CA JUMP JUMPDEST POP SWAP1 SWAP11 SWAP10 POP POP POP POP POP POP POP POP POP POP JUMP JUMPDEST PUSH1 0x0 PUSH1 0x1 DUP3 ADD PUSH3 0x72D JUMPI PUSH4 0x4E487B71 PUSH1 0xE0 SHL PUSH1 0x0 MSTORE PUSH1 0x11 PUSH1 0x4 MSTORE PUSH1 0x24 PUSH1 0x0 REVERT JUMPDEST POP PUSH1 0x1 ADD SWAP1 JUMP INVALID PUSH1 0x80 PUSH1 0x40 MSTORE CALLVALUE DUP1 ISZERO PUSH3 0x11 JUMPI PUSH1 0x0 DUP1 REVERT JUMPDEST POP PUSH1 0x40 MLOAD PUSH3 0xDFA CODESIZE SUB DUP1 PUSH3 0xDFA DUP4 CODECOPY DUP2 ADD PUSH1 0x40 DUP2 SWAP1 MSTORE PUSH3 0x34 SWAP2 PUSH3 0x2CB JUMP JUMPDEST PUSH1 0x0 DUP1 SLOAD PUSH1 0x1 PUSH1 0x1 PUSH1 0xA0 SHL SUB NOT AND CALLER OR DUP2 SSTORE PUSH1 0x40 DUP1 MLOAD PUSH1 0xE0 DUP2 ADD DUP3 MSTORE DUP6 DUP2 MSTORE PUSH1 0x20 DUP1 DUP3 ADD DUP7 SWAP1 MSTORE DUP2 DUP4 ADD DUP6 SWAP1 MSTORE PUSH1 0x60 DUP3 ADD DUP5 SWAP1 MSTORE PUSH1 0x80 DUP3 ADD DUP5 SWAP1 MSTORE PUSH1 0xA0 DUP3 ADD DUP5 SWAP1 MSTORE DUP3 MLOAD SWAP1 DUP2 ADD SWAP1 SWAP3 MSTORE SWAP2 DUP2 MSTORE PUSH1 0xC0 DUP3 ADD MSTORE DUP1 MLOAD PUSH1 0x1 SWAP1 DUP2 SWAP1 PUSH3 0x99 SWAP1 DUP3 PUSH3 0x477 JUMP JUMPDEST POP PUSH1 0x20 DUP3 ADD MLOAD PUSH1 0x1 DUP3 ADD SWAP1 PUSH3 0xB0 SWAP1 DUP3 PUSH3 0x477 JUMP JUMPDEST POP PUSH1 0x40 DUP3 ADD MLOAD DUP1 MLOAD PUSH3 0xCE SWAP2 PUSH1 0x2 DUP5 ADD SWAP2 PUSH1 0x20 SWAP1 SWAP2 ADD SWAP1 PUSH3 0x11E JUMP JUMPDEST POP PUSH1 0x60 DUP3 ADD MLOAD PUSH1 0x3 DUP3 ADD SSTORE PUSH1 0x80 DUP3 ADD MLOAD PUSH1 0x4 DUP3 ADD SSTORE PUSH1 0xA0 DUP3 ADD MLOAD PUSH1 0x5 DUP3 ADD DUP1 SLOAD PUSH1 0xFF NOT AND SWAP2 ISZERO ISZERO SWAP2 SWAP1 SWAP2 OR SWAP1 SSTORE PUSH1 0xC0 DUP3 ADD MLOAD PUSH1 0x6 DUP3 ADD SWAP1 PUSH3 0x111 SWAP1 DUP3 PUSH3 0x477 JUMP JUMPDEST POP SWAP1 POP POP POP POP POP PUSH3 0x543 JUMP JUMPDEST DUP3 DUP1 SLOAD DUP3 DUP3 SSTORE SWAP1 PUSH1 0x0 MSTORE PUSH1 0x20 PUSH1 0x0 KECCAK256 SWAP1 DUP2 ADD SWAP3 DUP3 ISZERO PUSH3 0x169 JUMPI SWAP2 PUSH1 0x20 MUL DUP3 ADD JUMPDEST DUP3 DUP2 GT ISZERO PUSH3 0x169 JUMPI DUP3 MLOAD DUP3 SWAP1 PUSH3 0x158 SWAP1 DUP3 PUSH3 0x477 JUMP JUMPDEST POP SWAP2 PUSH1 0x20 ADD SWAP2 SWAP1 PUSH1 0x1 ADD SWAP1 PUSH3 0x13F JUMP JUMPDEST POP PUSH3 0x177 SWAP3 SWAP2 POP PUSH3 0x17B JUMP JUMPDEST POP SWAP1 JUMP JUMPDEST DUP1 DUP3 GT ISZERO PUSH3 0x177 JUMPI PUSH1 0x0 PUSH3 0x192 DUP3 DUP3 PUSH3 0x19C JUMP JUMPDEST POP PUSH1 0x1 ADD PUSH3 0x17B JUMP JUMPDEST POP DUP1 SLOAD PUSH3 0x1AA SWAP1 PUSH3 0x3E8 JUMP JUMPDEST PUSH1 0x0 DUP3 SSTORE DUP1 PUSH1 0x1F LT PUSH3 0x1BB JUMPI POP POP JUMP JUMPDEST PUSH1 0x1F ADD PUSH1 0x20 SWAP1 DIV SWAP1 PUSH1 0x0 MSTORE PUSH1 0x20 PUSH1 0x0 KECCAK256 SWAP1 DUP2 ADD SWAP1 PUSH3 0x1DB SWAP2 SWAP1 PUSH3 0x1DE JUMP JUMPDEST POP JUMP JUMPDEST JUMPDEST DUP1 DUP3 GT ISZERO PUSH3 0x177 JUMPI PUSH1 0x0 DUP2 SSTORE PUSH1 0x1 ADD PUSH3 0x1DF JUMP JUMPDEST PUSH4 0x4E487B71 PUSH1 0xE0 SHL PUSH1 0x0 MSTORE PUSH1 0x41 PUSH1 0x4 MSTORE PUSH1 0x24 PUSH1 0x0 REVERT JUMPDEST PUSH1 0x40 MLOAD PUSH1 0x1F DUP3 ADD PUSH1 0x1F NOT AND DUP2 ADD PUSH1 0x1 PUSH1 0x1 PUSH1 0x40 SHL SUB DUP2 GT DUP3 DUP3 LT OR ISZERO PUSH3 0x236 JUMPI PUSH3 0x236 PUSH3 0x1F5 JUMP JUMPDEST PUSH1 0x40 MSTORE SWAP2 SWAP1 POP JUMP JUMPDEST PUSH1 0x0 DUP3 PUSH1 0x1F DUP4 ADD SLT PUSH3 0x250 JUMPI PUSH1 0x0 DUP1 REVERT JUMPDEST DUP2 MLOAD PUSH1 0x1 PUSH1 0x1 PUSH1 0x40 SHL SUB DUP2 GT ISZERO PUSH3 0x26C JUMPI PUSH3 0x26C PUSH3 0x1F5 JUMP JUMPDEST PUSH1 0x20 PUSH3 0x282 PUSH1 0x1F DUP4 ADD PUSH1 0x1F NOT AND DUP3 ADD PUSH3 0x20B JUMP JUMPDEST DUP3 DUP2 MSTORE DUP6 DUP3 DUP5 DUP8 ADD ADD GT ISZERO PUSH3 0x297 JUMPI PUSH1 0x0 DUP1 REVERT JUMPDEST PUSH1 0x0 JUMPDEST DUP4 DUP2 LT ISZERO PUSH3 0x2B7 JUMPI DUP6 DUP2 ADD DUP4 ADD MLOAD DUP3 DUP3 ADD DUP5 ADD MSTORE DUP3 ADD PUSH3 0x29A JUMP JUMPDEST POP PUSH1 0x0 SWAP3 DUP2 ADD SWAP1 SWAP2 ADD SWAP2 SWAP1 SWAP2 MSTORE SWAP4 SWAP3 POP POP POP JUMP JUMPDEST PUSH1 0x0 DUP1 PUSH1 0x0 PUSH1 0x60 DUP5 DUP7 SUB SLT ISZERO PUSH3 0x2E1 JUMPI PUSH1 0x0 DUP1 REVERT JUMPDEST DUP4 MLOAD PUSH1 0x1 PUSH1 0x1 PUSH1 0x40 SHL SUB DUP1 DUP3 GT ISZERO PUSH3 0x2F9 JUMPI PUSH1 0x0 DUP1 REVERT JUMPDEST PUSH3 0x307 DUP8 DUP4 DUP9 ADD PUSH3 0x23E JUMP JUMPDEST SWAP5 POP PUSH1 0x20 SWAP2 POP DUP2 DUP7 ADD MLOAD DUP2 DUP2 GT ISZERO PUSH3 0x31F JUMPI PUSH1 0x0 DUP1 REVERT JUMPDEST PUSH3 0x32D DUP9 DUP3 DUP10 ADD PUSH3 0x23E JUMP JUMPDEST SWAP5 POP POP PUSH1 0x40 DUP7 ADD MLOAD DUP2 DUP2 GT ISZERO PUSH3 0x343 JUMPI PUSH1 0x0 DUP1 REVERT JUMPDEST DUP7 ADD PUSH1 0x1F DUP2 ADD DUP9 SGT PUSH3 0x355 JUMPI PUSH1 0x0 DUP1 REVERT JUMPDEST DUP1 MLOAD DUP3 DUP2 GT ISZERO PUSH3 0x36A JUMPI PUSH3 0x36A PUSH3 0x1F5 JUMP JUMPDEST DUP1 PUSH1 0x5 SHL PUSH3 0x37B DUP6 DUP3 ADD PUSH3 0x20B JUMP JUMPDEST SWAP2 DUP3 MSTORE DUP3 DUP2 ADD DUP6 ADD SWAP2 DUP6 DUP2 ADD SWAP1 DUP12 DUP5 GT ISZERO PUSH3 0x396 JUMPI PUSH1 0x0 DUP1 REVERT JUMPDEST DUP7 DUP6 ADD SWAP3 POP JUMPDEST DUP4 DUP4 LT ISZERO PUSH3 0x3D7 JUMPI DUP3 MLOAD DUP7 DUP2 GT ISZERO PUSH3 0x3B6 JUMPI PUSH1 0x0 DUP1 DUP2 REVERT JUMPDEST PUSH3 0x3C6 DUP14 DUP10 DUP4 DUP10 ADD ADD PUSH3 0x23E JUMP JUMPDEST DUP4 MSTORE POP SWAP2 DUP7 ADD SWAP2 SWAP1 DUP7 ADD SWAP1 PUSH3 0x39C JUMP JUMPDEST DUP1 SWAP8 POP POP POP POP POP POP POP POP SWAP3 POP SWAP3 POP SWAP3 JUMP JUMPDEST PUSH1 0x1 DUP2 DUP2 SHR SWAP1 DUP3 AND DUP1 PUSH3 0x3FD JUMPI PUSH1 0x7F DUP3 AND SWAP2 POP JUMPDEST PUSH1 0x20 DUP3 LT DUP2 SUB PUSH3 0x41E JUMPI PUSH4 0x4E487B71 PUSH1 0xE0 SHL PUSH1 0x0 MSTORE PUSH1 0x22 PUSH1 0x4 MSTORE PUSH1 0x24 PUSH1 0x0 REVERT JUMPDEST POP SWAP2 SWAP1 POP JUMP JUMPDEST PUSH1 0x1F DUP3 GT ISZERO PUSH3 0x472 JUMPI PUSH1 0x0 DUP2 DUP2 MSTORE PUSH1 0x20 DUP2 KECCAK256 PUSH1 0x1F DUP6 ADD PUSH1 0x5 SHR DUP2 ADD PUSH1 0x20 DUP7 LT ISZERO PUSH3 0x44D JUMPI POP DUP1 JUMPDEST PUSH1 0x1F DUP6 ADD PUSH1 0x5 SHR DUP3 ADD SWAP2 POP JUMPDEST DUP2 DUP2 LT ISZERO PUSH3 0x46E JUMPI DUP3 DUP2 SSTORE PUSH1 0x1 ADD PUSH3 0x459 JUMP JUMPDEST POP POP POP JUMPDEST POP POP POP JUMP JUMPDEST DUP2 MLOAD PUSH1 0x1 PUSH1 0x1 PUSH1 0x40 SHL SUB DUP2 GT ISZERO PUSH3 0x493 JUMPI PUSH3 0x493 PUSH3 0x1F5 JUMP JUMPDEST PUSH3 0x4AB DUP2 PUSH3 0x4A4 DUP5 SLOAD PUSH3 0x3E8 JUMP JUMPDEST DUP5 PUSH3 0x424 JUMP JUMPDEST PUSH1 0x20 DUP1 PUSH1 0x1F DUP4 GT PUSH1 0x1 DUP2 EQ PUSH3 0x4E3 JUMPI PUSH1 0x0 DUP5 ISZERO PUSH3 0x4CA JUMPI POP DUP6 DUP4 ADD MLOAD JUMPDEST PUSH1 0x0 NOT PUSH1 0x3 DUP7 SWAP1 SHL SHR NOT AND PUSH1 0x1 DUP6 SWAP1 SHL OR DUP6 SSTORE PUSH3 0x46E JUMP JUMPDEST PUSH1 0x0 DUP6 DUP2 MSTORE PUSH1 0x20 DUP2 KECCAK256 PUSH1 0x1F NOT DUP7 AND SWAP2 JUMPDEST DUP3 DUP2 LT ISZERO PUSH3 0x514 JUMPI DUP9 DUP7 ADD MLOAD DUP3 SSTORE SWAP5 DUP5 ADD SWAP5 PUSH1 0x1 SWAP1 SWAP2 ADD SWAP1 DUP5 ADD PUSH3 0x4F3 JUMP JUMPDEST POP DUP6 DUP3 LT ISZERO PUSH3 0x533 JUMPI DUP8 DUP6 ADD MLOAD PUSH1 0x0 NOT PUSH1 0x3 DUP9 SWAP1 SHL PUSH1 0xF8 AND SHR NOT AND DUP2 SSTORE JUMPDEST POP POP POP POP POP PUSH1 0x1 SWAP1 DUP2 SHL ADD SWAP1 SSTORE POP JUMP JUMPDEST PUSH2 0x8A7 DUP1 PUSH3 0x553 PUSH1 0x0 CODECOPY PUSH1 0x0 RETURN INVALID PUSH1 0x80 PUSH1 0x40 MSTORE CALLVALUE DUP1 ISZERO PUSH2 0x10 JUMPI PUSH1 0x0 DUP1 REVERT JUMPDEST POP PUSH1 0x4 CALLDATASIZE LT PUSH2 0x57 JUMPI PUSH1 0x0 CALLDATALOAD PUSH1 0xE0 SHR DUP1 PUSH4 0x67CF2CC0 EQ PUSH2 0x5C JUMPI DUP1 PUSH4 0x80F55605 EQ PUSH2 0x71 JUMPI DUP1 PUSH4 0x8DA5CB5B EQ PUSH2 0x94 JUMPI DUP1 PUSH4 0xB68EB460 EQ PUSH2 0xBF JUMPI DUP1 PUSH4 0xE7B17975 EQ PUSH2 0x109 JUMPI JUMPDEST PUSH1 0x0 DUP1 REVERT JUMPDEST PUSH2 0x6F PUSH2 0x6A CALLDATASIZE PUSH1 0x4 PUSH2 0x4E8 JUMP JUMPDEST PUSH2 0x11C JUMP JUMPDEST STOP JUMPDEST PUSH2 0x79 PUSH2 0x192 JUMP JUMPDEST PUSH1 0x40 MLOAD PUSH2 0x8B SWAP7 SWAP6 SWAP5 SWAP4 SWAP3 SWAP2 SWAP1 PUSH2 0x5A0 JUMP JUMPDEST PUSH1 0x40 MLOAD DUP1 SWAP2 SUB SWAP1 RETURN JUMPDEST PUSH1 0x0 SLOAD PUSH2 0xA7 SWAP1 PUSH1 0x1 PUSH1 0x1 PUSH1 0xA0 SHL SUB AND DUP2 JUMP JUMPDEST PUSH1 0x40 MLOAD PUSH1 0x1 PUSH1 0x1 PUSH1 0xA0 SHL SUB SWAP1 SWAP2 AND DUP2 MSTORE PUSH1 0x20 ADD PUSH2 0x8B JUMP JUMPDEST PUSH2 0xFB PUSH2 0xCD CALLDATASIZE PUSH1 0x4 PUSH2 0x5FA JUMP JUMPDEST PUSH1 0x8 PUSH1 0x20 SWAP1 DUP2 MSTORE PUSH1 0x0 SWAP3 DUP4 MSTORE PUSH1 0x40 SWAP1 SWAP3 KECCAK256 DUP2 MLOAD DUP1 DUP4 ADD DUP5 ADD DUP1 MLOAD SWAP3 DUP2 MSTORE SWAP1 DUP5 ADD SWAP3 SWAP1 SWAP4 ADD SWAP2 SWAP1 SWAP2 KECCAK256 SWAP2 MSTORE SLOAD DUP2 JUMP JUMPDEST PUSH1 0x40 MLOAD SWAP1 DUP2 MSTORE PUSH1 0x20 ADD PUSH2 0x8B JUMP JUMPDEST PUSH2 0x6F PUSH2 0x117 CALLDATASIZE PUSH1 0x4 PUSH2 0x656 JUMP JUMPDEST PUSH2 0x35B JUMP JUMPDEST PUSH1 0x0 SLOAD PUSH1 0x1 PUSH1 0x1 PUSH1 0xA0 SHL SUB AND CALLER EQ PUSH2 0x167 JUMPI PUSH1 0x40 MLOAD PUSH3 0x461BCD PUSH1 0xE5 SHL DUP2 MSTORE PUSH1 0x20 PUSH1 0x4 DUP3 ADD MSTORE PUSH1 0x9 PUSH1 0x24 DUP3 ADD MSTORE PUSH9 0x2737BA1037BBB732B9 PUSH1 0xB9 SHL PUSH1 0x44 DUP3 ADD MSTORE PUSH1 0x64 ADD JUMPDEST PUSH1 0x40 MLOAD DUP1 SWAP2 SUB SWAP1 REVERT JUMPDEST PUSH1 0x4 DUP5 SWAP1 SSTORE PUSH1 0x5 DUP4 SWAP1 SSTORE PUSH1 0x6 DUP1 SLOAD PUSH1 0xFF NOT AND DUP4 ISZERO ISZERO OR SWAP1 SSTORE PUSH1 0x7 PUSH2 0x18B DUP3 DUP3 PUSH2 0x72D JUMP JUMPDEST POP POP POP POP POP JUMP JUMPDEST PUSH1 0x1 DUP1 SLOAD DUP2 SWAP1 PUSH2 0x1A1 SWAP1 PUSH2 0x6A4 JUMP JUMPDEST DUP1 PUSH1 0x1F ADD PUSH1 0x20 DUP1 SWAP2 DIV MUL PUSH1 0x20 ADD PUSH1 0x40 MLOAD SWAP1 DUP2 ADD PUSH1 0x40 MSTORE DUP1 SWAP3 SWAP2 SWAP1 DUP2 DUP2 MSTORE PUSH1 0x20 ADD DUP3 DUP1 SLOAD PUSH2 0x1CD SWAP1 PUSH2 0x6A4 JUMP JUMPDEST DUP1 ISZERO PUSH2 0x21A JUMPI DUP1 PUSH1 0x1F LT PUSH2 0x1EF JUMPI PUSH2 0x100 DUP1 DUP4 SLOAD DIV MUL DUP4 MSTORE SWAP2 PUSH1 0x20 ADD SWAP2 PUSH2 0x21A JUMP JUMPDEST DUP3 ADD SWAP2 SWAP1 PUSH1 0x0 MSTORE PUSH1 0x20 PUSH1 0x0 KECCAK256 SWAP1 JUMPDEST DUP2 SLOAD DUP2 MSTORE SWAP1 PUSH1 0x1 ADD SWAP1 PUSH1 0x20 ADD DUP1 DUP4 GT PUSH2 0x1FD JUMPI DUP3 SWAP1 SUB PUSH1 0x1F AND DUP3 ADD SWAP2 JUMPDEST POP POP POP POP POP SWAP1 DUP1 PUSH1 0x1 ADD DUP1 SLOAD PUSH2 0x22F SWAP1 PUSH2 0x6A4 JUMP JUMPDEST DUP1 PUSH1 0x1F ADD PUSH1 0x20 DUP1 SWAP2 DIV MUL PUSH1 0x20 ADD PUSH1 0x40 MLOAD SWAP1 DUP2 ADD PUSH1 0x40 MSTORE DUP1 SWAP3 SWAP2 SWAP1 DUP2 DUP2 MSTORE PUSH1 0x20 ADD DUP3 DUP1 SLOAD PUSH2 0x25B SWAP1 PUSH2 0x6A4 JUMP JUMPDEST DUP1 ISZERO PUSH2 0x2A8 JUMPI DUP1 PUSH1 0x1F LT PUSH2 0x27D JUMPI PUSH2 0x100 DUP1 DUP4 SLOAD DIV MUL DUP4 MSTORE SWAP2 PUSH1 0x20 ADD SWAP2 PUSH2 0x2A8 JUMP JUMPDEST DUP3 ADD SWAP2 SWAP1 PUSH1 0x0 MSTORE PUSH1 0x20 PUSH1 0x0 KECCAK256 SWAP1 JUMPDEST DUP2 SLOAD DUP2 MSTORE SWAP1 PUSH1 0x1 ADD SWAP1 PUSH1 0x20 ADD DUP1 DUP4 GT PUSH2 0x28B JUMPI DUP3 SWAP1 SUB PUSH1 0x1F AND DUP3 ADD SWAP2 JUMPDEST POP POP POP PUSH1 0x3 DUP5 ADD SLOAD PUSH1 0x4 DUP6 ADD SLOAD PUSH1 0x5 DUP7 ADD SLOAD PUSH1 0x6 DUP8 ADD DUP1 SLOAD SWAP7 SWAP8 SWAP4 SWAP7 SWAP3 SWAP6 POP PUSH1 0xFF SWAP1 SWAP2 AND SWAP4 POP SWAP1 PUSH2 0x2D8 SWAP1 PUSH2 0x6A4 JUMP JUMPDEST DUP1 PUSH1 0x1F ADD PUSH1 0x20 DUP1 SWAP2 DIV MUL PUSH1 0x20 ADD PUSH1 0x40 MLOAD SWAP1 DUP2 ADD PUSH1 0x40 MSTORE DUP1 SWAP3 SWAP2 SWAP1 DUP2 DUP2 MSTORE PUSH1 0x20 ADD DUP3 DUP1 SLOAD PUSH2 0x304 SWAP1 PUSH2 0x6A4 JUMP JUMPDEST DUP1 ISZERO PUSH2 0x351 JUMPI DUP1 PUSH1 0x1F LT PUSH2 0x326 JUMPI PUSH2 0x100 DUP1 DUP4 SLOAD DIV MUL DUP4 MSTORE SWAP2 PUSH1 0x20 ADD SWAP2 PUSH2 0x351 JUMP JUMPDEST DUP3 ADD SWAP2 SWAP1 PUSH1 0x0 MSTORE PUSH1 0x20 PUSH1 0x0 KECCAK256 SWAP1 JUMPDEST DUP2 SLOAD DUP2 MSTORE SWAP1 PUSH1 0x1 ADD SWAP1 PUSH1 0x20 ADD DUP1 DUP4 GT PUSH2 0x334 JUMPI DUP3 SWAP1 SUB PUSH1 0x1F AND DUP3 ADD SWAP2 JUMPDEST POP POP POP POP POP SWAP1 POP DUP7 JUMP JUMPDEST PUSH1 0x6 SLOAD PUSH1 0xFF AND ISZERO PUSH2 0x3A3 JUMPI PUSH1 0x40 MLOAD PUSH3 0x461BCD PUSH1 0xE5 SHL DUP2 MSTORE PUSH1 0x20 PUSH1 0x4 DUP3 ADD MSTORE PUSH1 0x12 PUSH1 0x24 DUP3 ADD MSTORE PUSH18 0x13585C9AD95D081A5CC81C995CDBDB1D9959 PUSH1 0x72 SHL PUSH1 0x44 DUP3 ADD MSTORE PUSH1 0x64 ADD PUSH2 0x15E JUMP JUMPDEST CALLER PUSH1 0x0 SWAP1 DUP2 MSTORE PUSH1 0x8 PUSH1 0x20 MSTORE PUSH1 0x40 SWAP1 DUP2 SWAP1 KECCAK256 SWAP1 MLOAD DUP4 SWAP2 SWAP1 PUSH2 0x3C4 SWAP1 DUP7 SWAP1 PUSH2 0x7ED JUMP JUMPDEST SWAP1 DUP2 MSTORE PUSH1 0x20 ADD PUSH1 0x40 MLOAD DUP1 SWAP2 SUB SWAP1 KECCAK256 PUSH1 0x0 DUP3 DUP3 SLOAD PUSH2 0x3E1 SWAP2 SWAP1 PUSH2 0x809 JUMP JUMPDEST SWAP1 SWAP2 SSTORE POP POP PUSH1 0x5 DUP1 SLOAD DUP4 SWAP2 SWAP1 PUSH1 0x0 SWAP1 PUSH2 0x3FB SWAP1 DUP5 SWAP1 PUSH2 0x809 JUMP JUMPDEST SWAP1 SWAP2 SSTORE POP POP PUSH1 0x40 MLOAD PUSH32 0x67FFCF165E303E08AF6B15E3D1415739B26806A78F61F0AE0FB52E1236FDFFFE SWAP1 PUSH2 0x438 SWAP1 CALLER SWAP1 DUP7 SWAP1 DUP7 SWAP1 DUP7 SWAP1 TIMESTAMP SWAP1 PUSH2 0x830 JUMP JUMPDEST PUSH1 0x40 MLOAD DUP1 SWAP2 SUB SWAP1 LOG1 POP POP POP JUMP JUMPDEST PUSH4 0x4E487B71 PUSH1 0xE0 SHL PUSH1 0x0 MSTORE PUSH1 0x41 PUSH1 0x4 MSTORE PUSH1 0x24 PUSH1 0x0 REVERT JUMPDEST PUSH1 0x0 DUP3 PUSH1 0x1F DUP4 ADD SLT PUSH2 0x46C JUMPI PUSH1 0x0 DUP1 REVERT JUMPDEST DUP2 CALLDATALOAD PUSH8 0xFFFFFFFFFFFFFFFF DUP1 DUP3 GT ISZERO PUSH2 0x487 JUMPI PUSH2 0x487 PUSH2 0x445 JUMP JUMPDEST PUSH1 0x40 MLOAD PUSH1 0x1F DUP4 ADD PUSH1 0x1F NOT SWAP1 DUP2 AND PUSH1 0x3F ADD AND DUP2 ADD SWAP1 DUP3 DUP3 GT DUP2 DUP4 LT OR ISZERO PUSH2 0x4AF JUMPI PUSH2 0x4AF PUSH2 0x445 JUMP JUMPDEST DUP2 PUSH1 0x40 MSTORE DUP4 DUP2 MSTORE DUP7 PUSH1 0x20 DUP6 DUP9 ADD ADD GT ISZERO PUSH2 0x4C8 JUMPI PUSH1 0x0 DUP1 REVERT JUMPDEST DUP4 PUSH1 0x20 DUP8 ADD PUSH1 0x20 DUP4 ADD CALLDATACOPY PUSH1 0x0 PUSH1 0x20 DUP6 DUP4 ADD ADD MSTORE DUP1 SWAP5 POP POP POP POP POP SWAP3 SWAP2 POP POP JUMP JUMPDEST PUSH1 0x0 DUP1 PUSH1 0x0 DUP1 PUSH1 0x80 DUP6 DUP8 SUB SLT ISZERO PUSH2 0x4FE JUMPI PUSH1 0x0 DUP1 REVERT JUMPDEST DUP5 CALLDATALOAD SWAP4 POP PUSH1 0x20 DUP6 ADD CALLDATALOAD SWAP3 POP PUSH1 0x40 DUP6 ADD CALLDATALOAD DUP1 ISZERO ISZERO DUP2 EQ PUSH2 0x51C JUMPI PUSH1 0x0 DUP1 REVERT JUMPDEST SWAP2 POP PUSH1 0x60 DUP6 ADD CALLDATALOAD PUSH8 0xFFFFFFFFFFFFFFFF DUP2 GT ISZERO PUSH2 0x538 JUMPI PUSH1 0x0 DUP1 REVERT JUMPDEST PUSH2 0x544 DUP8 DUP3 DUP9 ADD PUSH2 0x45B JUMP JUMPDEST SWAP2 POP POP SWAP3 SWAP6 SWAP2 SWAP5 POP SWAP3 POP JUMP JUMPDEST PUSH1 0x0 JUMPDEST DUP4 DUP2 LT ISZERO PUSH2 0x56B JUMPI DUP2 DUP2 ADD MLOAD DUP4 DUP3 ADD MSTORE PUSH1 0x20 ADD PUSH2 0x553 JUMP JUMPDEST POP POP PUSH1 0x0 SWAP2 ADD MSTORE JUMP JUMPDEST PUSH1 0x0 DUP2 MLOAD DUP1 DUP5 MSTORE PUSH2 0x58C DUP2 PUSH1 0x20 DUP7 ADD PUSH1 0x20 DUP7 ADD PUSH2 0x550 JUMP JUMPDEST PUSH1 0x1F ADD PUSH1 0x1F NOT AND SWAP3 SWAP1 SWAP3 ADD PUSH1 0x20 ADD SWAP3 SWAP2 POP POP JUMP JUMPDEST PUSH1 0xC0 DUP2 MSTORE PUSH1 0x0 PUSH2 0x5B3 PUSH1 0xC0 DUP4 ADD DUP10 PUSH2 0x574 JUMP JUMPDEST DUP3 DUP2 SUB PUSH1 0x20 DUP5 ADD MSTORE PUSH2 0x5C5 DUP2 DUP10 PUSH2 0x574 JUMP JUMPDEST SWAP1 POP DUP7 PUSH1 0x40 DUP5 ADD MSTORE DUP6 PUSH1 0x60 DUP5 ADD MSTORE DUP5 ISZERO ISZERO PUSH1 0x80 DUP5 ADD MSTORE DUP3 DUP2 SUB PUSH1 0xA0 DUP5 ADD MSTORE PUSH2 0x5ED DUP2 DUP6 PUSH2 0x574 JUMP JUMPDEST SWAP10 SWAP9 POP POP POP POP POP POP POP POP POP JUMP JUMPDEST PUSH1 0x0 DUP1 PUSH1 0x40 DUP4 DUP6 SUB SLT ISZERO PUSH2 0x60D JUMPI PUSH1 0x0 DUP1 REVERT JUMPDEST DUP3 CALLDATALOAD PUSH1 0x1 PUSH1 0x1 PUSH1 0xA0 SHL SUB DUP2 AND DUP2 EQ PUSH2 0x624 JUMPI PUSH1 0x0 DUP1 REVERT JUMPDEST SWAP2 POP PUSH1 0x20 DUP4 ADD CALLDATALOAD PUSH8 0xFFFFFFFFFFFFFFFF DUP2 GT ISZERO PUSH2 0x640 JUMPI PUSH1 0x0 DUP1 REVERT JUMPDEST PUSH2 0x64C DUP6 DUP3 DUP7 ADD PUSH2 0x45B JUMP JUMPDEST SWAP2 POP POP SWAP3 POP SWAP3 SWAP1 POP JUMP JUMPDEST PUSH1 0x0 DUP1 PUSH1 0x0 PUSH1 0x60 DUP5 DUP7 SUB SLT ISZERO PUSH2 0x66B JUMPI PUSH1 0x0 DUP1 REVERT JUMPDEST DUP4 CALLDATALOAD PUSH8 0xFFFFFFFFFFFFFFFF DUP2 GT ISZERO PUSH2 0x682 JUMPI PUSH1 0x0 DUP1 REVERT JUMPDEST PUSH2 0x68E DUP7 DUP3 DUP8 ADD PUSH2 0x45B JUMP JUMPDEST SWAP7 PUSH1 0x20 DUP7 ADD CALLDATALOAD SWAP7 POP PUSH1 0x40 SWAP1 SWAP6 ADD CALLDATALOAD SWAP5 SWAP4 POP POP POP POP JUMP JUMPDEST PUSH1 0x1 DUP2 DUP2 SHR SWAP1 DUP3 AND DUP1 PUSH2 0x6B8 JUMPI PUSH1 0x7F DUP3 AND SWAP2 POP JUMPDEST PUSH1 0x20 DUP3 LT DUP2 SUB PUSH2 0x6D8 JUMPI PUSH4 0x4E487B71 PUSH1 0xE0 SHL PUSH1 0x0 MSTORE PUSH1 0x22 PUSH1 0x4 MSTORE PUSH1 0x24 PUSH1 0x0 REVERT JUMPDEST POP SWAP2 SWAP1 POP JUMP JUMPDEST PUSH1 0x1F DUP3 GT ISZERO PUSH2 0x728 JUMPI PUSH1 0x0 DUP2 DUP2 MSTORE PUSH1 0x20 DUP2 KECCAK256 PUSH1 0x1F DUP6 ADD PUSH1 0x5 SHR DUP2 ADD PUSH1 0x20 DUP7 LT ISZERO PUSH2 0x705 JUMPI POP DUP1 JUMPDEST PUSH1 0x1F DUP6 ADD PUSH1 0x5 SHR DUP3 ADD SWAP2 POP JUMPDEST DUP2 DUP2 LT ISZERO PUSH2 0x724 JUMPI DUP3 DUP2 SSTORE PUSH1 0x1 ADD PUSH2 0x711 JUMP JUMPDEST POP POP POP JUMPDEST POP POP POP JUMP JUMPDEST DUP2 MLOAD PUSH8 0xFFFFFFFFFFFFFFFF DUP2 GT ISZERO PUSH2 0x747 JUMPI PUSH2 0x747 PUSH2 0x445 JUMP JUMPDEST PUSH2 0x75B DUP2 PUSH2 0x755 DUP5 SLOAD PUSH2 0x6A4 JUMP JUMPDEST DUP5 PUSH2 0x6DE JUMP JUMPDEST PUSH1 0x20 DUP1 PUSH1 0x1F DUP4 GT PUSH1 0x1 DUP2 EQ PUSH2 0x790 JUMPI PUSH1 0x0 DUP5 ISZERO PUSH2 0x778 JUMPI POP DUP6 DUP4 ADD MLOAD JUMPDEST PUSH1 0x0 NOT PUSH1 0x3 DUP7 SWAP1 SHL SHR NOT AND PUSH1 0x1 DUP6 SWAP1 SHL OR DUP6 SSTORE PUSH2 0x724 JUMP JUMPDEST PUSH1 0x0 DUP6 DUP2 MSTORE PUSH1 0x20 DUP2 KECCAK256 PUSH1 0x1F NOT DUP7 AND SWAP2 JUMPDEST DUP3 DUP2 LT ISZERO PUSH2 0x7BF JUMPI DUP9 DUP7 ADD MLOAD DUP3 SSTORE SWAP5 DUP5 ADD SWAP5 PUSH1 0x1 SWAP1 SWAP2 ADD SWAP1 DUP5 ADD PUSH2 0x7A0 JUMP JUMPDEST POP DUP6 DUP3 LT ISZERO PUSH2 0x7DD JUMPI DUP8 DUP6 ADD MLOAD PUSH1 0x0 NOT PUSH1 0x3 DUP9 SWAP1 SHL PUSH1 0xF8 AND SHR NOT AND DUP2 SSTORE JUMPDEST POP POP POP POP POP PUSH1 0x1 SWAP1 DUP2 SHL ADD SWAP1 SSTORE POP JUMP JUMPDEST PUSH1 0x0 DUP3 MLOAD PUSH2 0x7FF DUP2 DUP5 PUSH1 0x20 DUP8 ADD PUSH2 0x550 JUMP JUMPDEST SWAP2 SWAP1 SWAP2 ADD SWAP3 SWAP2 POP POP JUMP JUMPDEST DUP1 DUP3 ADD DUP1 DUP3 GT ISZERO PUSH2 0x82A JUMPI PUSH4 0x4E487B71 PUSH1 0xE0 SHL PUSH1 0x0 MSTORE PUSH1 0x11 PUSH1 0x4 MSTORE PUSH1 0x24 PUSH1 0x0 REVERT JUMPDEST SWAP3 SWAP2 POP POP JUMP JUMPDEST PUSH1 0x1 PUSH1 0x1 PUSH1 0xA0 SHL SUB DUP7 AND DUP2 MSTORE PUSH1 0xA0 PUSH1 0x20 DUP3 ADD DUP2 SWAP1 MSTORE PUSH1 0x0 SWAP1 PUSH2 0x854 SWAP1 DUP4 ADD DUP8 PUSH2 0x574 JUMP JUMPDEST PUSH1 0x40 DUP4 ADD SWAP6 SWAP1 SWAP6 MSTORE POP PUSH1 0x60 DUP2 ADD SWAP3 SWAP1 SWAP3 MSTORE PUSH1 0x80 SWAP1 SWAP2 ADD MSTORE SWAP3 SWAP2 POP POP JUMP INVALID LOG2 PUSH5 0x6970667358 0x22 SLT KECCAK256 0xCD AND 0xB5 EXP DUP1 CALLER 0xDB 0x24 0xC3 0x4F CALLDATASIZE SMOD PUSH5 0xC7FA309226 CALLDATASIZE 0x23 SELFDESTRUCT CALLDATACOPY 0x5D 0xB5 0x26 DUP5 PUSH16 0x9A7CEA4CEF64736F6C63430008140033 LOG2 PUSH5 0x6970667358 0x22 SLT KECCAK256 SELFDESTRUCT 0x2B SGT 0xB5 0xB3 0x29 CREATE 0xE1 0xAE MSIZE SAR PUSH0 JUMPI ADDRESS 0xEB 0xA5 0xC0 PUSH11 0x45F8F94ADA187750AF7BBF 0xE6 0xD PUSH4 0x64736F6C PUSH4 0x43000814 STOP CALLER "},"methodIdentifiers":{"createMarket(string,string,string[])":"9b47a7cb","markets(uint256)":"b1283e77","nextMarketId()":"406ef2ef","owner()":"8da5cb5b","updateMarketState(uint256,(string,uint256,uint256,bool,string))":"6be40918"}},"storageLayout":{"storage":[{"astId":94,"contract":"contracts/MarketFactory.sol:MarketFactory","label":"owner","offset":0,"slot":"0","type":"t_address"},{"astId":102,"contract":"contracts/MarketFactory.sol:MarketFactory","label":"nextMarketId","offset":0,"slot":"1","type":"t_uint256"},{"astId":106,"contract":"contracts/MarketFactory.sol:MarketFactory","label":"markets","offset":0,"slot":"2","type":"t_mapping(t_uint256,t_address)"}],"types":{"t_address":{"encoding":"inplace","label":"address","numberOfBytes":"20"},"t_mapping(t_uint256,t_address)":{"encoding":"mapping","key":"t_uint256","label":"mapping(uint256 => address)","numberOfBytes":"32","value":"t_address"},"t_uint256":{"encoding":"inplace","label":"uint256","numberOfBytes":"32"}}}}}}