{"contracts/PredictionMarket.sol":{"PredictionMarket":{"abi":[{"inputs":[{"internalType":"string","name":"_description","type":"string"},{"internalType":"string","name":"_marketType","type":"string"},{"internalType":"string[]","name":"_options","type":"string[]"}],"stateMutability":"nonpayable","type":"constructor"},{"anonymous":false,"inputs":[{"indexed":false,"internalType":"address","name":"bettor","type":"address"},{"indexed":false,"internalType":"string","name":"outcome","type":"string"},{"indexed":false,"internalType":"uint256","name":"amount","type":"uint256"},{"indexed":false,"internalType":"uint256","name":"price","type":"uint256"},{"indexed":false,"internalType":"uint256","name":"timestamp","type":"uint256"}],"name":"BetPlaced","type":"event"},{"inputs":[{"internalType":"address","name":"","type":"address"},{"internalType":"string","name":"","type":"string"}],"name":"bets","outputs":[{"internalType":"uint256","name":"","type":"uint256"}],"stateMutability":"view","type":"function"},{"inputs":[],"name":"market","outputs":[{"internalType":"string","name":"description","type":"string"},{"internalType":"string","name":"marketType","type":"string"},{"internalType":"uint256","name":"totalLiquidity","type":"uint256"},{"internalType":"bool","name":"resolved","type":"bool"},{"internalType":"string","name":"outcome","type":"string"}],"stateMutability":"view","type":"function"},{"inputs":[],"name":"owner","outputs":[{"internalType":"address","name":"","type":"address"}],"stateMutability":"view","type":"function"},{"inputs":[{"internalType":"string","name":"outcome","type":"string"},{"internalType":"uint256","name":"amount","type":"uint256"},{"internalType":"uint256","name":"price","type":"uint256"}],"name":"placeBet","outputs":[],"stateMutability":"nonpayable","type":"function"},{"inputs":[{"internalType":"uint256","name":"currentPrice","type":"uint256"},{"internalType":"uint256","name":"totalLiquidity","type":"uint256"},{"internalType":"bool","name":"resolved","type":"bool"},{"internalType":"string","name":"outcome","type":"string"}],"name":"updateState","outputs":[],"stateMutability":"nonpayable","type":"function"}],"evm":{"bytecode":{"linkReferences":{},"object":"60806040523480156200001157600080fd5b5060405162000dd538038062000dd58339810160408190526200003491620002ba565b600080546001600160a01b031916331781556040805160c08101825285815260208082018690528183018590526060820184905260808201849052825190810190925291815260a08201528051600190819062000092908262000466565b5060208201516001820190620000a9908262000466565b5060408201518051620000c79160028401916020909101906200010d565b5060608201516003820155608082015160048201805460ff191691151591909117905560a0820151600582019062000100908262000466565b5090505050505062000532565b82805482825590600052602060002090810192821562000158579160200282015b8281111562000158578251829062000147908262000466565b50916020019190600101906200012e565b50620001669291506200016a565b5090565b80821115620001665760006200018182826200018b565b506001016200016a565b5080546200019990620003d7565b6000825580601f10620001aa575050565b601f016020900490600052602060002090810190620001ca9190620001cd565b50565b5b80821115620001665760008155600101620001ce565b634e487b7160e01b600052604160045260246000fd5b604051601f8201601f191681016001600160401b0381118282101715620002255762000225620001e4565b604052919050565b600082601f8301126200023f57600080fd5b81516001600160401b038111156200025b576200025b620001e4565b602062000271601f8301601f19168201620001fa565b82815285828487010111156200028657600080fd5b60005b83811015620002a657858101830151828201840152820162000289565b506000928101909101919091529392505050565b600080600060608486031215620002d057600080fd5b83516001600160401b0380821115620002e857600080fd5b620002f6878388016200022d565b94506020915081860151818111156200030e57600080fd5b6200031c888289016200022d565b9450506040860151818111156200033257600080fd5b8601601f810188136200034457600080fd5b805182811115620003595762000359620001e4565b8060051b6200036a858201620001fa565b918252828101850191858101908b8411156200038557600080fd5b86850192505b83831015620003c657825186811115620003a55760008081fd5b620003b58d89838901016200022d565b83525091860191908601906200038b565b809750505050505050509250925092565b600181811c90821680620003ec57607f821691505b6020821081036200040d57634e487b7160e01b600052602260045260246000fd5b50919050565b601f8211156200046157600081815260208120601f850160051c810160208610156200043c5750805b601f850160051c820191505b818110156200045d5782815560010162000448565b5050505b505050565b81516001600160401b03811115620004825762000482620001e4565b6200049a81620004938454620003d7565b8462000413565b602080601f831160018114620004d25760008415620004b95750858301515b600019600386901b1c1916600185901b1785556200045d565b600085815260208120601f198616915b828110156200050357888601518255948401946001909101908401620004e2565b5085821015620005225787850151600019600388901b60f8161c191681555b5050505050600190811b01905550565b61089380620005426000396000f3fe608060405234801561001057600080fd5b50600436106100575760003560e01c806367cf2cc01461005c57806380f55605146100715780638da5cb5b14610093578063b68eb460146100be578063e7b1797514610108575b600080fd5b61006f61006a3660046104db565b61011b565b005b61007961018c565b60405161008a959493929190610593565b60405180910390f35b6000546100a6906001600160a01b031681565b6040516001600160a01b03909116815260200161008a565b6100fa6100cc3660046105e6565b6007602090815260009283526040909220815180830184018051928152908401929093019190912091525481565b60405190815260200161008a565b61006f610116366004610642565b61034e565b6000546001600160a01b031633146101665760405162461bcd60e51b81526020600482015260096024820152682737ba1037bbb732b960b91b60448201526064015b60405180910390fd5b60048390556005805460ff191683151517905560066101858282610719565b5050505050565b60018054819061019b90610690565b80601f01602080910402602001604051908101604052809291908181526020018280546101c790610690565b80156102145780601f106101e957610100808354040283529160200191610214565b820191906000526020600020905b8154815290600101906020018083116101f757829003601f168201915b50505050509080600101805461022990610690565b80601f016020809104026020016040519081016040528092919081815260200182805461025590610690565b80156102a25780601f10610277576101008083540402835291602001916102a2565b820191906000526020600020905b81548152906001019060200180831161028557829003601f168201915b50505050600383015460048401546005850180549495929460ff9092169350906102cb90610690565b80601f01602080910402602001604051908101604052809291908181526020018280546102f790610690565b80156103445780601f1061031957610100808354040283529160200191610344565b820191906000526020600020905b81548152906001019060200180831161032757829003601f168201915b5050505050905085565b60055460ff16156103965760405162461bcd60e51b815260206004820152601260248201527113585c9ad95d081a5cc81c995cdbdb1d995960721b604482015260640161015d565b336000908152600760205260409081902090518391906103b79086906107d9565b908152602001604051809103902060008282546103d491906107f5565b9091555050600480548391906000906103ee9084906107f5565b90915550506040517f67ffcf165e303e08af6b15e3d1415739b26806a78f61f0ae0fb52e1236fdfffe9061042b903390869086908690429061081c565b60405180910390a1505050565b634e487b7160e01b600052604160045260246000fd5b600082601f83011261045f57600080fd5b813567ffffffffffffffff8082111561047a5761047a610438565b604051601f8301601f19908116603f011681019082821181831017156104a2576104a2610438565b816040528381528660208588010111156104bb57600080fd5b836020870160208301376000602085830101528094505050505092915050565b600080600080608085870312156104f157600080fd5b84359350602085013592506040850135801515811461050f57600080fd5b9150606085013567ffffffffffffffff81111561052b57600080fd5b6105378782880161044e565b91505092959194509250565b60005b8381101561055e578181015183820152602001610546565b50506000910152565b6000815180845261057f816020860160208601610543565b601f01601f19169290920160200192915050565b60a0815260006105a660a0830188610567565b82810360208401526105b88188610567565b9050856040840152841515606084015282810360808401526105da8185610567565b98975050505050505050565b600080604083850312156105f957600080fd5b82356001600160a01b038116811461061057600080fd5b9150602083013567ffffffffffffffff81111561062c57600080fd5b6106388582860161044e565b9150509250929050565b60008060006060848603121561065757600080fd5b833567ffffffffffffffff81111561066e57600080fd5b61067a8682870161044e565b9660208601359650604090950135949350505050565b600181811c908216806106a457607f821691505b6020821081036106c457634e487b7160e01b600052602260045260246000fd5b50919050565b601f82111561071457600081815260208120601f850160051c810160208610156106f15750805b601f850160051c820191505b81811015610710578281556001016106fd565b5050505b505050565b815167ffffffffffffffff81111561073357610733610438565b610747816107418454610690565b846106ca565b602080601f83116001811461077c57600084156107645750858301515b600019600386901b1c1916600185901b178555610710565b600085815260208120601f198616915b828110156107ab5788860151825594840194600190910190840161078c565b50858210156107c95787850151600019600388901b60f8161c191681555b5050505050600190811b01905550565b600082516107eb818460208701610543565b9190910192915050565b8082018082111561081657634e487b7160e01b600052601160045260246000fd5b92915050565b6001600160a01b038616815260a06020820181905260009061084090830187610567565b60408301959095525060608101929092526080909101529291505056fea2646970667358221220f1e02f22ffb51004478e59fb59fd62cfe331a375f1ed2bbbec1dcca1643d378e64736f6c63430008140033","opcodes":"PUSH1 0x80 PUSH1 0x40 MSTORE CALLVALUE DUP1 ISZERO PUSH3 0x11 JUMPI PUSH1 0x0 DUP1 REVERT JUMPDEST POP PUSH1 0x40 MLOAD PUSH3 0xDD5 CODESIZE SUB DUP1 PUSH3 0xDD5 DUP4 CODECOPY DUP2 ADD PUSH1 0x40 DUP2 SWAP1 MSTORE PUSH3 0x34 SWAP2 PUSH3 0x2BA JUMP JUMPDEST PUSH1 0x0 DUP1 SLOAD PUSH1 0x1 PUSH1 0x1 PUSH1 0xA0 SHL SUB NOT AND CALLER OR DUP2 SSTORE PUSH1 0x40 DUP1 MLOAD PUSH1 0xC0 DUP2 ADD DUP3 MSTORE DUP6 DUP2 MSTORE PUSH1 0x20 DUP1 DUP3 ADD DUP7 SWAP1 MSTORE DUP2 DUP4 ADD DUP6 SWAP1 MSTORE PUSH1 0x60 DUP3 ADD DUP5 SWAP1 MSTORE PUSH1 0x80 DUP3 ADD DUP5 SWAP1 MSTORE DUP3 MLOAD SWAP1 DUP2 ADD SWAP1 SWAP3 MSTORE SWAP2 DUP2 MSTORE PUSH1 0xA0 DUP3 ADD MSTORE DUP1 MLOAD PUSH1 0x1 SWAP1 DUP2 SWAP1 PUSH3 0x92 SWAP1 DUP3 PUSH3 0x466 JUMP JUMPDEST POP PUSH1 0x20 DUP3 ADD MLOAD PUSH1 0x1 DUP3 ADD SWAP1 PUSH3 0xA9 SWAP1 DUP3 PUSH3 0x466 JUMP JUMPDEST POP PUSH1 0x40 DUP3 ADD MLOAD DUP1 MLOAD PUSH3 0xC7 SWAP2 PUSH1 0x2 DUP5 ADD SWAP2 PUSH1 0x20 SWAP1 SWAP2 ADD SWAP1 PUSH3 0x10D JUMP JUMPDEST POP PUSH1 0x60 DUP3 ADD MLOAD PUSH1 0x3 DUP3 ADD SSTORE PUSH1 0x80 DUP3 ADD MLOAD PUSH1 0x4 DUP3 ADD DUP1 SLOAD PUSH1 0xFF NOT AND SWAP2 ISZERO ISZERO SWAP2 SWAP1 SWAP2 OR SWAP1 SSTORE PUSH1 0xA0 DUP3 ADD MLOAD PUSH1 0x5 DUP3 ADD SWAP1 PUSH3 0x100 SWAP1 DUP3 PUSH3 0x466 JUMP JUMPDEST POP SWAP1 POP POP POP POP POP PUSH3 0x532 JUMP JUMPDEST DUP3 DUP1 SLOAD DUP3 DUP3 SSTORE SWAP1 PUSH1 0x0 MSTORE PUSH1 0x20 PUSH1 0x0 KECCAK256 SWAP1 DUP2 ADD SWAP3 DUP3 ISZERO PUSH3 0x158 JUMPI SWAP2 PUSH1 0x20 MUL DUP3 ADD JUMPDEST DUP3 DUP2 GT ISZERO PUSH3 0x158 JUMPI DUP3 MLOAD DUP3 SWAP1 PUSH3 0x147 SWAP1 DUP3 PUSH3 0x466 JUMP JUMPDEST POP SWAP2 PUSH1 0x20 ADD SWAP2 SWAP1 PUSH1 0x1 ADD SWAP1 PUSH3 0x12E JUMP JUMPDEST POP PUSH3 0x166 SWAP3 SWAP2 POP PUSH3 0x16A JUMP JUMPDEST POP SWAP1 JUMP JUMPDEST DUP1 DUP3 GT ISZERO PUSH3 0x166 JUMPI PUSH1 0x0 PUSH3 0x181 DUP3 DUP3 PUSH3 0x18B JUMP JUMPDEST POP PUSH1 0x1 ADD PUSH3 0x16A JUMP JUMPDEST POP DUP1 SLOAD PUSH3 0x199 SWAP1 PUSH3 0x3D7 JUMP JUMPDEST PUSH1 0x0 DUP3 SSTORE DUP1 PUSH1 0x1F LT PUSH3 0x1AA JUMPI POP POP JUMP JUMPDEST PUSH1 0x1F ADD PUSH1 0x20 SWAP1 DIV SWAP1 PUSH1 0x0 MSTORE PUSH1 0x20 PUSH1 0x0 KECCAK256 SWAP1 DUP2 ADD SWAP1 PUSH3 0x1CA SWAP2 SWAP1 PUSH3 0x1CD JUMP JUMPDEST POP JUMP JUMPDEST JUMPDEST DUP1 DUP3 GT ISZERO PUSH3 0x166 JUMPI PUSH1 0x0 DUP2 SSTORE PUSH1 0x1 ADD PUSH3 0x1CE JUMP JUMPDEST PUSH4 0x4E487B71 PUSH1 0xE0 SHL PUSH1 0x0 MSTORE PUSH1 0x41 PUSH1 0x4 MSTORE PUSH1 0x24 PUSH1 0x0 REVERT JUMPDEST PUSH1 0x40 MLOAD PUSH1 0x1F DUP3 ADD PUSH1 0x1F NOT AND DUP2 ADD PUSH1 0x1 PUSH1 0x1 PUSH1 0x40 SHL SUB DUP2 GT DUP3 DUP3 LT OR ISZERO PUSH3 0x225 JUMPI PUSH3 0x225 PUSH3 0x1E4 JUMP JUMPDEST PUSH1 0x40 MSTORE SWAP2 SWAP1 POP JUMP JUMPDEST PUSH1 0x0 DUP3 PUSH1 0x1F DUP4 ADD SLT PUSH3 0x23F JUMPI PUSH1 0x0 DUP1 REVERT JUMPDEST DUP2 MLOAD PUSH1 0x1 PUSH1 0x1 PUSH1 0x40 SHL SUB DUP2 GT ISZERO PUSH3 0x25B JUMPI PUSH3 0x25B PUSH3 0x1E4 JUMP JUMPDEST PUSH1 0x20 PUSH3 0x271 PUSH1 0x1F DUP4 ADD PUSH1 0x1F NOT AND DUP3 ADD PUSH3 0x1FA JUMP JUMPDEST DUP3 DUP2 MSTORE DUP6 DUP3 DUP5 DUP8 ADD ADD GT ISZERO PUSH3 0x286 JUMPI PUSH1 0x0 DUP1 REVERT JUMPDEST PUSH1 0x0 JUMPDEST DUP4 DUP2 LT ISZERO PUSH3 0x2A6 JUMPI DUP6 DUP2 ADD DUP4 ADD MLOAD DUP3 DUP3 ADD DUP5 ADD MSTORE DUP3 ADD PUSH3 0x289 JUMP JUMPDEST POP PUSH1 0x0 SWAP3 DUP2 ADD SWAP1 SWAP2 ADD SWAP2 SWAP1 SWAP2 MSTORE SWAP4 SWAP3 POP POP POP JUMP JUMPDEST PUSH1 0x0 DUP1 PUSH1 0x0 PUSH1 0x60 DUP5 DUP7 SUB SLT ISZERO PUSH3 0x2D0 JUMPI PUSH1 0x0 DUP1 REVERT JUMPDEST DUP4 MLOAD PUSH1 0x1 PUSH1 0x1 PUSH1 0x40 SHL SUB DUP1 DUP3 GT ISZERO PUSH3 0x2E8 JUMPI PUSH1 0x0 DUP1 REVERT JUMPDEST PUSH3 0x2F6 DUP8 DUP4 DUP9 ADD PUSH3 0x22D JUMP JUMPDEST SWAP5 POP PUSH1 0x20 SWAP2 POP DUP2 DUP7 ADD MLOAD DUP2 DUP2 GT ISZERO PUSH3 0x30E JUMPI PUSH1 0x0 DUP1 REVERT JUMPDEST PUSH3 0x31C DUP9 DUP3 DUP10 ADD PUSH3 0x22D JUMP JUMPDEST SWAP5 POP POP PUSH1 0x40 DUP7 ADD MLOAD DUP2 DUP2 GT ISZERO PUSH3 0x332 JUMPI PUSH1 0x0 DUP1 REVERT JUMPDEST DUP7 ADD PUSH1 0x1F DUP2 ADD DUP9 SGT PUSH3 0x344 JUMPI PUSH1 0x0 DUP1 REVERT JUMPDEST DUP1 MLOAD DUP3 DUP2 GT ISZERO PUSH3 0x359 JUMPI PUSH3 0x359 PUSH3 0x1E4 JUMP JUMPDEST DUP1 PUSH1 0x5 SHL PUSH3 0x36A DUP6 DUP3 ADD PUSH3 0x1FA JUMP JUMPDEST SWAP2 DUP3 MSTORE DUP3 DUP2 ADD DUP6 ADD SWAP2 DUP6 DUP2 ADD SWAP1 DUP12 DUP5 GT ISZERO PUSH3 0x385 JUMPI PUSH1 0x0 DUP1 REVERT JUMPDEST DUP7 DUP6 ADD SWAP3 POP JUMPDEST DUP4 DUP4 LT ISZERO PUSH3 0x3C6 JUMPI DUP3 MLOAD DUP7 DUP2 GT ISZERO PUSH3 0x3A5 JUMPI PUSH1 0x0 DUP1 DUP2 REVERT JUMPDEST PUSH3 0x3B5 DUP14 DUP10 DUP4 DUP10 ADD ADD PUSH3 0x22D JUMP JUMPDEST DUP4 MSTORE POP SWAP2 DUP7 ADD SWAP2 SWAP1 DUP7 ADD SWAP1 PUSH3 0x38B JUMP JUMPDEST DUP1 SWAP8 POP POP POP POP POP POP POP POP SWAP3 POP SWAP3 POP SWAP3 JUMP JUMPDEST PUSH1 0x1 DUP2 DUP2 SHR SWAP1 DUP3 AND DUP1 PUSH3 0x3EC JUMPI PUSH1 0x7F DUP3 AND SWAP2 POP JUMPDEST PUSH1 0x20 DUP3 LT DUP2 SUB PUSH3 0x40D JUMPI PUSH4 0x4E487B71 PUSH1 0xE0 SHL PUSH1 0x0 MSTORE PUSH1 0x22 PUSH1 0x4 MSTORE PUSH1 0x24 PUSH1 0x0 REVERT JUMPDEST POP SWAP2 SWAP1 POP JUMP JUMPDEST PUSH1 0x1F DUP3 GT ISZERO PUSH3 0x461 JUMPI PUSH1 0x0 DUP2 DUP2 MSTORE PUSH1 0x20 DUP2 KECCAK256 PUSH1 0x1F DUP6 ADD PUSH1 0x5 SHR DUP2 ADD PUSH1 0x20 DUP7 LT ISZERO PUSH3 0x43C JUMPI POP DUP1 JUMPDEST PUSH1 0x1F DUP6 ADD PUSH1 0x5 SHR DUP3 ADD SWAP2 POP JUMPDEST DUP2 DUP2 LT ISZERO PUSH3 0x45D JUMPI DUP3 DUP2 SSTORE PUSH1 0x1 ADD PUSH3 0x448 JUMP JUMPDEST POP POP POP JUMPDEST POP POP POP JUMP JUMPDEST DUP2 MLOAD PUSH1 0x1 PUSH1 0x1 PUSH1 0x40 SHL SUB DUP2 GT ISZERO PUSH3 0x482 JUMPI PUSH3 0x482 PUSH3 0x1E4 JUMP JUMPDEST PUSH3 0x49A DUP2 PUSH3 0x493 DUP5 SLOAD PUSH3 0x3D7 JUMP JUMPDEST DUP5 PUSH3 0x413 JUMP JUMPDEST PUSH1 0x20 DUP1 PUSH1 0x1F DUP4 GT PUSH1 0x1 DUP2 EQ PUSH3 0x4D2 JUMPI PUSH1 0x0 DUP5 ISZERO PUSH3 0x4B9 JUMPI POP DUP6 DUP4 ADD MLOAD JUMPDEST PUSH1 0x0 NOT PUSH1 0x3 DUP7 SWAP1 SHL SHR NOT AND PUSH1 0x1 DUP6 SWAP1 SHL OR DUP6 SSTORE PUSH3 0x45D JUMP JUMPDEST PUSH1 0x0 DUP6 DUP2 MSTORE PUSH1 0x20 DUP2 KECCAK256 PUSH1 0x1F NOT DUP7 AND SWAP2 JUMPDEST DUP3 DUP2 LT ISZERO PUSH3 0x503 JUMPI DUP9 DUP7 ADD MLOAD DUP3 SSTORE SWAP5 DUP5 ADD SWAP5 PUSH1 0x1 SWAP1 SWAP2 ADD SWAP1 DUP5 ADD PUSH3 0x4E2 JUMP JUMPDEST POP DUP6 DUP3 LT ISZERO PUSH3 0x522 JUMPI DUP8 DUP6 ADD MLOAD PUSH1 0x0 NOT PUSH1 0x3 DUP9 SWAP1 SHL PUSH1 0xF8 AND SHR NOT AND DUP2 SSTORE JUMPDEST POP POP POP POP POP PUSH1 0x1 SWAP1 DUP2 SHL ADD SWAP1 SSTORE POP JUMP JUMPDEST PUSH2 0x893 DUP1 PUSH3 0x542 PUSH1 0x0 CODECOPY PUSH1 0x0 RETURN INVALID PUSH1 0x80 PUSH1 0x40 MSTORE CALLVALUE DUP1 ISZERO PUSH2 0x10 JUMPI PUSH1 0x0 DUP1 REVERT JUMPDEST POP PUSH1 0x4 CALLDATASIZE LT PUSH2 0x57 JUMPI PUSH1 0x0 CALLDATALOAD PUSH1 0xE0 SHR DUP1 PUSH4 0x67CF2CC0 EQ PUSH2 0x5C JUMPI DUP1 PUSH4 0x80F55605 EQ PUSH2 0x71 JUMPI DUP1 PUSH4 0x8DA5CB5B EQ PUSH2 0x93 JUMPI DUP1 PUSH4 0xB68EB460 EQ PUSH2 0xBE JUMPI DUP1 PUSH4 0xE7B17975 EQ PUSH2 0x108 JUMPI JUMPDEST PUSH1 0x0 DUP1 REVERT JUMPDEST PUSH2 0x6F PUSH2 0x6A CALLDATASIZE PUSH1 0x4 PUSH2 0x4DB JUMP JUMPDEST PUSH2 0x11B JUMP JUMPDEST STOP JUMPDEST PUSH2 0x79 PUSH2 0x18C JUMP JUMPDEST PUSH1 0x40 MLOAD PUSH2 0x8A SWAP6 SWAP5 SWAP4 SWAP3 SWAP2 SWAP1 PUSH2 0x593 JUMP JUMPDEST PUSH1 0x40 MLOAD DUP1 SWAP2 SUB SWAP1 RETURN JUMPDEST PUSH1 0x0 SLOAD PUSH2 0xA6 SWAP1 PUSH1 0x1 PUSH1 0x1 PUSH1 0xA0 SHL SUB AND DUP2 JUMP JUMPDEST PUSH1 0x40 MLOAD PUSH1 0x1 PUSH1 0x1 PUSH1 0xA0 SHL SUB SWAP1 SWAP2 AND DUP2 MSTORE PUSH1 0x20 ADD PUSH2 0x8A JUMP JUMPDEST PUSH2 0xFA PUSH2 0xCC CALLDATASIZE PUSH1 0x4 PUSH2 0x5E6 JUMP JUMPDEST PUSH1 0x7 PUSH1 0x20 SWAP1 DUP2 MSTORE PUSH1 0x0 SWAP3 DUP4 MSTORE PUSH1 0x40 SWAP1 SWAP3 KECCAK256 DUP2 MLOAD DUP1 DUP4 ADD DUP5 ADD DUP1 MLOAD SWAP3 DUP2 MSTORE SWAP1 DUP5 ADD SWAP3 SWAP1 SWAP4 ADD SWAP2 SWAP1 SWAP2 KECCAK256 SWAP2 MSTORE SLOAD DUP2 JUMP JUMPDEST PUSH1 0x40 MLOAD SWAP1 DUP2 MSTORE PUSH1 0x20 ADD PUSH2 0x8A JUMP JUMPDEST PUSH2 0x6F PUSH2 0x116 CALLDATASIZE PUSH1 0x4 PUSH2 0x642 JUMP JUMPDEST PUSH2 0x34E JUMP JUMPDEST PUSH1 0x0 SLOAD PUSH1 0x1 PUSH1 0x1 PUSH1 0xA0 SHL SUB AND CALLER EQ PUSH2 0x166 JUMPI PUSH1 0x40 MLOAD PUSH3 0x461BCD PUSH1 0xE5 SHL DUP2 MSTORE PUSH1 0x20 PUSH1 0x4 DUP3 ADD MSTORE PUSH1 0x9 PUSH1 0x24 DUP3 ADD MSTORE PUSH9 0x2737BA1037BBB732B9 PUSH1 0xB9 SHL PUSH1 0x44 DUP3 ADD MSTORE PUSH1 0x64 ADD JUMPDEST PUSH1 0x40 MLOAD DUP1 SWAP2 SUB SWAP1 REVERT JUMPDEST PUSH1 0x4 DUP4 SWAP1 SSTORE PUSH1 0x5 DUP1 SLOAD PUSH1 0xFF NOT AND DUP4 ISZERO ISZERO OR SWAP1 SSTORE PUSH1 0x6 PUSH2 0x185 DUP3 DUP3 PUSH2 0x719 JUMP JUMPDEST POP POP POP POP POP JUMP JUMPDEST PUSH1 0x1 DUP1 SLOAD DUP2 SWAP1 PUSH2 0x19B SWAP1 PUSH2 0x690 JUMP JUMPDEST DUP1 PUSH1 0x1F ADD PUSH1 0x20 DUP1 SWAP2 DIV MUL PUSH1 0x20 ADD PUSH1 0x40 MLOAD SWAP1 DUP2 ADD PUSH1 0x40 MSTORE DUP1 SWAP3 SWAP2 SWAP1 DUP2 DUP2 MSTORE PUSH1 0x20 ADD DUP3 DUP1 SLOAD PUSH2 0x1C7 SWAP1 PUSH2 0x690 JUMP JUMPDEST DUP1 ISZERO PUSH2 0x214 JUMPI DUP1 PUSH1 0x1F LT PUSH2 0x1E9 JUMPI PUSH2 0x100 DUP1 DUP4 SLOAD DIV MUL DUP4 MSTORE SWAP2 PUSH1 0x20 ADD SWAP2 PUSH2 0x214 JUMP JUMPDEST DUP3 ADD SWAP2 SWAP1 PUSH1 0x0 MSTORE PUSH1 0x20 PUSH1 0x0 KECCAK256 SWAP1 JUMPDEST DUP2 SLOAD DUP2 MSTORE SWAP1 PUSH1 0x1 ADD SWAP1 PUSH1 0x20 ADD DUP1 DUP4 GT PUSH2 0x1F7 JUMPI DUP3 SWAP1 SUB PUSH1 0x1F AND DUP3 ADD SWAP2 JUMPDEST POP POP POP POP POP SWAP1 DUP1 PUSH1 0x1 ADD DUP1 SLOAD PUSH2 0x229 SWAP1 PUSH2 0x690 JUMP JUMPDEST DUP1 PUSH1 0x1F ADD PUSH1 0x20 DUP1 SWAP2 DIV MUL PUSH1 0x20 ADD PUSH1 0x40 MLOAD SWAP1 DUP2 ADD PUSH1 0x40 MSTORE DUP1 SWAP3 SWAP2 SWAP1 DUP2 DUP2 MSTORE PUSH1 0x20 ADD DUP3 DUP1 SLOAD PUSH2 0x255 SWAP1 PUSH2 0x690 JUMP JUMPDEST DUP1 ISZERO PUSH2 0x2A2 JUMPI DUP1 PUSH1 0x1F LT PUSH2 0x277 JUMPI PUSH2 0x100 DUP1 DUP4 SLOAD DIV MUL DUP4 MSTORE SWAP2 PUSH1 0x20 ADD SWAP2 PUSH2 0x2A2 JUMP JUMPDEST DUP3 ADD SWAP2 SWAP1 PUSH1 0x0 MSTORE PUSH1 0x20 PUSH1 0x0 KECCAK256 SWAP1 JUMPDEST DUP2 SLOAD DUP2 MSTORE SWAP1 PUSH1 0x1 ADD SWAP1 PUSH1 0x20 ADD DUP1 DUP4 GT PUSH2 0x285 JUMPI DUP3 SWAP1 SUB PUSH1 0x1F AND DUP3 ADD SWAP2 JUMPDEST POP POP POP POP PUSH1 0x3 DUP4 ADD SLOAD PUSH1 0x4 DUP5 ADD SLOAD PUSH1 0x5 DUP6 ADD DUP1 SLOAD SWAP5 SWAP6 SWAP3 SWAP5 PUSH1 0xFF SWAP1 SWAP3 AND SWAP4 POP SWAP1 PUSH2 0x2CB SWAP1 PUSH2 0x690 JUMP JUMPDEST DUP1 PUSH1 0x1F ADD PUSH1 0x20 DUP1 SWAP2 DIV MUL PUSH1 0x20 ADD PUSH1 0x40 MLOAD SWAP1 DUP2 ADD PUSH1 0x40 MSTORE DUP1 SWAP3 SWAP2 SWAP1 DUP2 DUP2 MSTORE PUSH1 0x20 ADD DUP3 DUP1 SLOAD PUSH2 0x2F7 SWAP1 PUSH2 0x690 JUMP JUMPDEST DUP1 ISZERO PUSH2 0x344 JUMPI DUP1 PUSH1 0x1F LT PUSH2 0x319 JUMPI PUSH2 0x100 DUP1 DUP4 SLOAD DIV MUL DUP4 MSTORE SWAP2 PUSH1 0x20 ADD SWAP2 PUSH2 0x344 JUMP JUMPDEST DUP3 ADD SWAP2 SWAP1 PUSH1 0x0 MSTORE PUSH1 0x20 PUSH1 0x0 KECCAK256 SWAP1 JUMPDEST DUP2 SLOAD DUP2 MSTORE SWAP1 PUSH1 0x1 ADD SWAP1 PUSH1 0x20 ADD DUP1 DUP4 GT PUSH2 0x327 JUMPI DUP3 SWAP1 SUB PUSH1 0x1F AND DUP3 ADD SWAP2 JUMPDEST POP POP POP POP POP SWAP1 POP DUP6 JUMP JUMPDEST PUSH1 0x5 SLOAD PUSH1 0xFF AND ISZERO PUSH2 0x396 JUMPI PUSH1 0x40 MLOAD PUSH3 0x461BCD PUSH1 0xE5 SHL DUP2 MSTORE PUSH1 0x20 PUSH1 0x4 DUP3 ADD MSTORE PUSH1 0x12 PUSH1 0x24 DUP3 ADD MSTORE PUSH18 0x13585C9AD95D081A5CC81C995CDBDB1D9959 PUSH1 0x72 SHL PUSH1 0x44 DUP3 ADD MSTORE PUSH1 0x64 ADD PUSH2 0x15D JUMP JUMPDEST CALLER PUSH1 0x0 SWAP1 DUP2 MSTORE PUSH1 0x7 PUSH1 0x20 MSTORE PUSH1 0x40 SWAP1 DUP2 SWAP1 KECCAK256 SWAP1 MLOAD DUP4 SWAP2 SWAP1 PUSH2 0x3B7 SWAP1 DUP7 SWAP1 PUSH2 0x7D9 JUMP JUMPDEST SWAP1 DUP2 MSTORE PUSH1 0x20 ADD PUSH1 0x40 MLOAD DUP1 SWAP2 SUB SWAP1 KECCAK256 PUSH1 0x0 DUP3 DUP3 SLOAD PUSH2 0x3D4 SWAP2 SWAP1 PUSH2 0x7F5 JUMP JUMPDEST SWAP1 SWAP2 SSTORE POP POP PUSH1 0x4 DUP1 SLOAD DUP4 SWAP2 SWAP1 PUSH1 0x0 SWAP1 PUSH2 0x3EE SWAP1 DUP5 SWAP1 PUSH2 0x7F5 JUMP JUMPDEST SWAP1 SWAP2 SSTORE POP POP PUSH1 0x40 MLOAD PUSH32 0x67FFCF165E303E08AF6B15E3D1415739B26806A78F61F0AE0FB52E1236FDFFFE SWAP1 PUSH2 0x42B SWAP1 CALLER SWAP1 DUP7 SWAP1 DUP7 SWAP1 DUP7 SWAP1 TIMESTAMP SWAP1 PUSH2 0x81C JUMP JUMPDEST PUSH1 0x40 MLOAD DUP1 SWAP2 SUB SWAP1 LOG1 POP POP POP JUMP JUMPDEST PUSH4 0x4E487B71 PUSH1 0xE0 SHL PUSH1 0x0 MSTORE PUSH1 0x41 PUSH1 0x4 MSTORE PUSH1 0x24 PUSH1 0x0 REVERT JUMPDEST PUSH1 0x0 DUP3 PUSH1 0x1F DUP4 ADD SLT PUSH2 0x45F JUMPI PUSH1 0x0 DUP1 REVERT JUMPDEST DUP2 CALLDATALOAD PUSH8 0xFFFFFFFFFFFFFFFF DUP1 DUP3 GT ISZERO PUSH2 0x47A JUMPI PUSH2 0x47A PUSH2 0x438 JUMP JUMPDEST PUSH1 0x40 MLOAD PUSH1 0x1F DUP4 ADD PUSH1 0x1F NOT SWAP1 DUP2 AND PUSH1 0x3F ADD AND DUP2 ADD SWAP1 DUP3 DUP3 GT DUP2 DUP4 LT OR ISZERO PUSH2 0x4A2 JUMPI PUSH2 0x4A2 PUSH2 0x438 JUMP JUMPDEST DUP2 PUSH1 0x40 MSTORE DUP4 DUP2 MSTORE DUP7 PUSH1 0x20 DUP6 DUP9 ADD ADD GT ISZERO PUSH2 0x4BB JUMPI PUSH1 0x0 DUP1 REVERT JUMPDEST DUP4 PUSH1 0x20 DUP8 ADD PUSH1 0x20 DUP4 ADD CALLDATACOPY PUSH1 0x0 PUSH1 0x20 DUP6 DUP4 ADD ADD MSTORE DUP1 SWAP5 POP POP POP POP POP SWAP3 SWAP2 POP POP JUMP JUMPDEST PUSH1 0x0 DUP1 PUSH1 0x0 DUP1 PUSH1 0x80 DUP6 DUP8 SUB SLT ISZERO PUSH2 0x4F1 JUMPI PUSH1 0x0 DUP1 REVERT JUMPDEST DUP5 CALLDATALOAD SWAP4 POP PUSH1 0x20 DUP6 ADD CALLDATALOAD SWAP3 POP PUSH1 0x40 DUP6 ADD CALLDATALOAD DUP1 ISZERO ISZERO DUP2 EQ PUSH2 0x50F JUMPI PUSH1 0x0 DUP1 REVERT JUMPDEST SWAP2 POP PUSH1 0x60 DUP6 ADD CALLDATALOAD PUSH8 0xFFFFFFFFFFFFFFFF DUP2 GT ISZERO PUSH2 0x52B JUMPI PUSH1 0x0 DUP1 REVERT JUMPDEST PUSH2 0x537 DUP8 DUP3 DUP9 ADD PUSH2 0x44E JUMP JUMPDEST SWAP2 POP POP SWAP3 SWAP6 SWAP2 SWAP5 POP SWAP3 POP JUMP JUMPDEST PUSH1 0x0 JUMPDEST DUP4 DUP2 LT ISZERO PUSH2 0x55E JUMPI DUP2 DUP2 ADD MLOAD DUP4 DUP3 ADD MSTORE PUSH1 0x20 ADD PUSH2 0x546 JUMP JUMPDEST POP POP PUSH1 0x0 SWAP2 ADD MSTORE JUMP JUMPDEST PUSH1 0x0 DUP2 MLOAD DUP1 DUP5 MSTORE PUSH2 0x57F DUP2 PUSH1 0x20 DUP7 ADD PUSH1 0x20 DUP7 ADD PUSH2 0x543 JUMP JUMPDEST PUSH1 0x1F ADD PUSH1 0x1F NOT AND SWAP3 SWAP1 SWAP3 ADD PUSH1 0x20 ADD SWAP3 SWAP2 POP POP JUMP JUMPDEST PUSH1 0xA0 DUP2 MSTORE PUSH1 0x0 PUSH2 0x5A6 PUSH1 0xA0 DUP4 ADD DUP9 PUSH2 0x567 JUMP JUMPDEST DUP3 DUP2 SUB PUSH1 0x20 DUP5 ADD MSTORE PUSH2 0x5B8 DUP2 DUP9 PUSH2 0x567 JUMP JUMPDEST SWAP1 POP DUP6 PUSH1 0x40 DUP5 ADD MSTORE DUP5 ISZERO ISZERO PUSH1 0x60 DUP5 ADD MSTORE DUP3 DUP2 SUB PUSH1 0x80 DUP5 ADD MSTORE PUSH2 0x5DA DUP2 DUP6 PUSH2 0x567 JUMP JUMPDEST SWAP9 SWAP8 POP POP POP POP POP POP POP POP JUMP JUMPDEST PUSH1 0x0 DUP1 PUSH1 0x40 DUP4 DUP6 SUB SLT ISZERO PUSH2 0x5F9 JUMPI PUSH1 0x0 DUP1 REVERT JUMPDEST DUP3 CALLDATALOAD PUSH1 0x1 PUSH1 0x1 PUSH1 0xA0 SHL SUB DUP2 AND DUP2 EQ PUSH2 0x610 JUMPI PUSH1 0x0 DUP1 REVERT JUMPDEST SWAP2 POP PUSH1 0x20 DUP4 ADD CALLDATALOAD PUSH8 0xFFFFFFFFFFFFFFFF DUP2 GT ISZERO PUSH2 0x62C JUMPI PUSH1 0x0 DUP1 REVERT JUMPDEST PUSH2 0x638 DUP6 DUP3 DUP7 ADD PUSH2 0x44E JUMP JUMPDEST SWAP2 POP POP SWAP3 POP SWAP3 SWAP1 POP JUMP JUMPDEST PUSH1 0x0 DUP1 PUSH1 0x0 PUSH1 0x60 DUP5 DUP7 SUB SLT ISZERO PUSH2 0x657 JUMPI PUSH1 0x0 DUP1 REVERT JUMPDEST DUP4 CALLDATALOAD PUSH8 0xFFFFFFFFFFFFFFFF DUP2 GT ISZERO PUSH2 0x66E JUMPI PUSH1 0x0 DUP1 REVERT JUMPDEST PUSH2 0x67A DUP7 DUP3 DUP8 ADD PUSH2 0x44E JUMP JUMPDEST SWAP7 PUSH1 0x20 DUP7 ADD CALLDATALOAD SWAP7 POP PUSH1 0x40 SWAP1 SWAP6 ADD CALLDATALOAD SWAP5 SWAP4 POP POP POP POP JUMP JUMPDEST PUSH1 0x1 DUP2 DUP2 SHR SWAP1 DUP3 AND DUP1 PUSH2 0x6A4 JUMPI PUSH1 0x7F DUP3 AND SWAP2 POP JUMPDEST PUSH1 0x20 DUP3 LT DUP2 SUB PUSH2 0x6C4 JUMPI PUSH4 0x4E487B71 PUSH1 0xE0 SHL PUSH1 0x0 MSTORE PUSH1 0x22 PUSH1 0x4 MSTORE PUSH1 0x24 PUSH1 0x0 REVERT JUMPDEST POP SWAP2 SWAP1 POP JUMP JUMPDEST PUSH1 0x1F DUP3 GT ISZERO PUSH2 0x714 JUMPI PUSH1 0x0 DUP2 DUP2 MSTORE PUSH1 0x20 DUP2 KECCAK256 PUSH1 0x1F DUP6 ADD PUSH1 0x5 SHR DUP2 ADD PUSH1 0x20 DUP7 LT ISZERO PUSH2 0x6F1 JUMPI POP DUP1 JUMPDEST PUSH1 0x1F DUP6 ADD PUSH1 0x5 SHR DUP3 ADD SWAP2 POP JUMPDEST DUP2 DUP2 LT ISZERO PUSH2 0x710 JUMPI DUP3 DUP2 SSTORE PUSH1 0x1 ADD PUSH2 0x6FD JUMP JUMPDEST POP POP POP JUMPDEST POP POP POP JUMP JUMPDEST DUP2 MLOAD PUSH8 0xFFFFFFFFFFFFFFFF DUP2 GT ISZERO PUSH2 0x733 JUMPI PUSH2 0x733 PUSH2 0x438 JUMP JUMPDEST PUSH2 0x747 DUP2 PUSH2 0x741 DUP5 SLOAD PUSH2 0x690 JUMP JUMPDEST DUP5 PUSH2 0x6CA JUMP JUMPDEST PUSH1 0x20 DUP1 PUSH1 0x1F DUP4 GT PUSH1 0x1 DUP2 EQ PUSH2 0x77C JUMPI PUSH1 0x0 DUP5 ISZERO PUSH2 0x764 JUMPI POP DUP6 DUP4 ADD MLOAD JUMPDEST PUSH1 0x0 NOT PUSH1 0x3 DUP7 SWAP1 SHL SHR NOT AND PUSH1 0x1 DUP6 SWAP1 SHL OR DUP6 SSTORE PUSH2 0x710 JUMP JUMPDEST PUSH1 0x0 DUP6 DUP2 MSTORE PUSH1 0x20 DUP2 KECCAK256 PUSH1 0x1F NOT DUP7 AND SWAP2 JUMPDEST DUP3 DUP2 LT ISZERO PUSH2 0x7AB JUMPI DUP9 DUP7 ADD MLOAD DUP3 SSTORE SWAP5 DUP5 ADD SWAP5 PUSH1 0x1 SWAP1 SWAP2 ADD SWAP1 DUP5 ADD PUSH2 0x78C JUMP JUMPDEST POP DUP6 DUP3 LT ISZERO PUSH2 0x7C9 JUMPI DUP8 DUP6 ADD MLOAD PUSH1 0x0 NOT PUSH1 0x3 DUP9 SWAP1 SHL PUSH1 0xF8 AND SHR NOT AND DUP2 SSTORE JUMPDEST POP POP POP POP POP PUSH1 0x1 SWAP1 DUP2 SHL ADD SWAP1 SSTORE POP JUMP JUMPDEST PUSH1 0x0 DUP3 MLOAD PUSH2 0x7EB DUP2 DUP5 PUSH1 0x20 DUP8 ADD PUSH2 0x543 JUMP JUMPDEST SWAP2 SWAP1 SWAP2 ADD SWAP3 SWAP2 POP POP JUMP JUMPDEST DUP1 DUP3 ADD DUP1 DUP3 GT ISZERO PUSH2 0x816 JUMPI PUSH4 0x4E487B71 PUSH1 0xE0 SHL PUSH1 0x0 MSTORE PUSH1 0x11 PUSH1 0x4 MSTORE PUSH1 0x24 PUSH1 0x0 REVERT JUMPDEST SWAP3 SWAP2 POP POP JUMP JUMPDEST PUSH1 0x1 PUSH1 0x1 PUSH1 0xA0 SHL SUB DUP7 AND DUP2 MSTORE PUSH1 0xA0 PUSH1 0x20 DUP3 ADD DUP2 SWAP1 MSTORE PUSH1 0x0 SWAP1 PUSH2 0x840 SWAP1 DUP4 ADD DUP8 PUSH2 0x567 JUMP JUMPDEST PUSH1 0x40 DUP4 ADD SWAP6 SWAP1 SWAP6 MSTORE POP PUSH1 0x60 DUP2 ADD SWAP3 SWAP1 SWAP3 MSTORE PUSH1 0x80 SWAP1 SWAP2 ADD MSTORE SWAP3 SWAP2 POP POP JUMP INVALID LOG2 PUSH5 0x6970667358 0x22 SLT KECCAK256 CALL 0xE0 0x2F 0x22 SELFDESTRUCT 0xB5 LT DIV SELFBALANCE DUP15 MSIZE 0xFB MSIZE REVERT PUSH3 0xCFE331 LOG3 PUSH22 0xF1ED2BBBEC1DCCA1643D378E64736F6C634300081400 CALLER "},"methodIdentifiers":{"bets(address,string)":"b68eb460","market()":"80f55605","owner()":"8da5cb5b","placeBet(string,uint256,uint256)":"e7b17975","updateState(uint256,uint256,bool,string)":"67cf2cc0"}},"storageLayout":{"storage":[{"astId":1605,"contract":"contracts/PredictionMarket.sol:PredictionMarket","label":"owner","offset":0,"slot":"0","type":"t_address"},{"astId":1622,"contract":"contracts/PredictionMarket.sol:PredictionMarket","label":"market","offset":0,"slot":"1","type":"t_struct(Market)1619_storage"},{"astId":1628,"contract":"contracts/PredictionMarket.sol:PredictionMarket","label":"bets","offset":0,"slot":"7","type":"t_mapping(t_address,t_mapping(t_string_memory_ptr,t_uint256))"}],"types":{"t_address":{"encoding":"inplace","label":"address","numberOfBytes":"20"},"t_array(t_string_storage)dyn_storage":{"base":"t_string_storage","encoding":"dynamic_array","label":"string[]","numberOfBytes":"32"},"t_bool":{"encoding":"inplace","label":"bool","numberOfBytes":"1"},"t_mapping(t_address,t_mapping(t_string_memory_ptr,t_uint256))":{"encoding":"mapping","key":"t_address","label":"mapping(address => mapping(string => uint256))","numberOfBytes":"32","value":"t_mapping(t_string_memory_ptr,t_uint256)"},"t_mapping(t_string_memory_ptr,t_uint256)":{"encoding":"mapping","key":"t_string_memory_ptr","label":"mapping(string => uint256)","numberOfBytes":"32","value":"t_uint256"},"t_string_memory_ptr":{"encoding":"bytes","label":"string","numberOfBytes":"32"},"t_string_storage":{"encoding":"bytes","label":"string","numberOfBytes":"32"},"t_struct(Market)1619_storage":{"encoding":"inplace","label":"struct PredictionMarket.Market","members":[{"astId":1607,"contract":"contracts/PredictionMarket.sol:PredictionMarket","label":"description","offset":0,"slot":"0","type":"t_string_storage"},{"astId":1609,"contract":"contracts/PredictionMarket.sol:PredictionMarket","label":"marketType","offset":0,"slot":"1","type":"t_string_storage"},{"astId":1612,"contract":"contracts/PredictionMarket.sol:PredictionMarket","label":"options","offset":0,"slot":"2","type":"t_array(t_string_storage)dyn_storage"},{"astId":1614,"contract":"contracts/PredictionMarket.sol:PredictionMarket","label":"totalLiquidity","offset":0,"slot":"3","type":"t_uint256"},{"astId":1616,"contract":"contracts/PredictionMarket.sol:PredictionMarket","label":"resolved","offset":0,"slot":"4","type":"t_bool"},{"astId":1618,"contract":"contracts/PredictionMarket.sol:PredictionMarket","label":"outcome","offset":0,"slot":"5","type":"t_string_storage"}],"numberOfBytes":"192"},"t_uint256":{"encoding":"inplace","label":"uint256","numberOfBytes":"32"}}}}}}