{
  "_format": "hh-sol-artifact-1",
  "contractName": "OrderBook",
  "sourceName": "contracts/OrderBook.sol",
  "abi": [
    {
      "inputs": [],
      "stateMutability": "nonpayable",
      "type": "constructor"
    },
    {
      "anonymous": false,
      "inputs": [
        {
          "indexed": true,
          "internalType": "address",
          "name": "user",
          "type": "address"
        },
        {
          "indexed": true,
          "internalType": "address",
          "name": "token",
          "type": "address"
        },
        {
          "indexed": false,
          "internalType": "uint256",
          "name": "amount",
          "type": "uint256"
        },
        {
          "indexed": false,
          "internalType": "uint256",
          "name": "price",
          "type": "uint256"
        },
        {
          "indexed": false,
          "internalType": "uint256",
          "name": "new_price",
          "type": "uint256"
        }
      ],
      "name": "BuyOrder",
      "type": "event"
    },
    {
      "anonymous": false,
      "inputs": [
        {
          "indexed": false,
          "internalType": "uint256",
          "name": "oldFee",
          "type": "uint256"
        },
        {
          "indexed": false,
          "internalType": "uint256",
          "name": "newFee",
          "type": "uint256"
        }
      ],
      "name": "FeeUpdate",
      "type": "event"
    },
    {
      "anonymous": false,
      "inputs": [
        {
          "indexed": true,
          "internalType": "address",
          "name": "user",
          "type": "address"
        },
        {
          "indexed": true,
          "internalType": "address",
          "name": "token",
          "type": "address"
        },
        {
          "indexed": false,
          "internalType": "uint256",
          "name": "amount",
          "type": "uint256"
        },
        {
          "indexed": false,
          "internalType": "uint256",
          "name": "price",
          "type": "uint256"
        },
        {
          "indexed": false,
          "internalType": "uint256",
          "name": "new_price",
          "type": "uint256"
        }
      ],
      "name": "SellOrder",
      "type": "event"
    },
    {
      "inputs": [],
      "name": "fee",
      "outputs": [
        {
          "internalType": "uint256",
          "name": "",
          "type": "uint256"
        }
      ],
      "stateMutability": "view",
      "type": "function"
    },
    {
      "inputs": [
        {
          "internalType": "address",
          "name": "token",
          "type": "address"
        }
      ],
      "name": "get_price",
      "outputs": [
        {
          "internalType": "uint256",
          "name": "",
          "type": "uint256"
        }
      ],
      "stateMutability": "view",
      "type": "function"
    },
    {
      "inputs": [
        {
          "internalType": "address",
          "name": "_token",
          "type": "address"
        }
      ],
      "name": "get_token_balance",
      "outputs": [
        {
          "internalType": "uint256",
          "name": "",
          "type": "uint256"
        }
      ],
      "stateMutability": "view",
      "type": "function"
    },
    {
      "inputs": [],
      "name": "owner",
      "outputs": [
        {
          "internalType": "address",
          "name": "",
          "type": "address"
        }
      ],
      "stateMutability": "view",
      "type": "function"
    },
    {
      "inputs": [
        {
          "internalType": "address",
          "name": "token_address",
          "type": "address"
        },
        {
          "internalType": "uint256",
          "name": "amount",
          "type": "uint256"
        },
        {
          "internalType": "uint256",
          "name": "limit_price",
          "type": "uint256"
        }
      ],
      "name": "place_limit_buy_order",
      "outputs": [],
      "stateMutability": "nonpayable",
      "type": "function"
    },
    {
      "inputs": [
        {
          "internalType": "address",
          "name": "token_address",
          "type": "address"
        },
        {
          "internalType": "uint256",
          "name": "amount",
          "type": "uint256"
        },
        {
          "internalType": "uint256",
          "name": "limit_price",
          "type": "uint256"
        }
      ],
      "name": "place_limit_sell_order",
      "outputs": [],
      "stateMutability": "nonpayable",
      "type": "function"
    },
    {
      "inputs": [],
      "name": "price_token",
      "outputs": [
        {
          "internalType": "address",
          "name": "",
          "type": "address"
        }
      ],
      "stateMutability": "view",
      "type": "function"
    },
    {
      "inputs": [
        {
          "internalType": "uint256",
          "name": "new_fee",
          "type": "uint256"
        }
      ],
      "name": "set_fee",
      "outputs": [],
      "stateMutability": "nonpayable",
      "type": "function"
    },
    {
      "inputs": [
        {
          "internalType": "address",
          "name": "token",
          "type": "address"
        },
        {
          "internalType": "uint256",
          "name": "new_price",
          "type": "uint256"
        }
      ],
      "name": "set_price",
      "outputs": [],
      "stateMutability": "nonpayable",
      "type": "function"
    },
    {
      "inputs": [
        {
          "internalType": "address[]",
          "name": "tokens",
          "type": "address[]"
        },
        {
          "internalType": "uint256[]",
          "name": "new_prices",
          "type": "uint256[]"
        }
      ],
      "name": "set_price_batch",
      "outputs": [],
      "stateMutability": "nonpayable",
      "type": "function"
    },
    {
      "inputs": [
        {
          "internalType": "address",
          "name": "token",
          "type": "address"
        }
      ],
      "name": "set_price_token",
      "outputs": [],
      "stateMutability": "nonpayable",
      "type": "function"
    }
  ],
  "bytecode": "0x6080604052600160025534801561001557600080fd5b50600080546001600160a01b03191633179055611064806100376000396000f3fe608060405234801561001057600080fd5b50600436106100a95760003560e01c8063984474fb11610071578063984474fb1461012c578063b116ce5c1461013f578063d472d6bf14610176578063ddca3f4314610189578063e6511a9014610192578063f9e9d67c146101a557600080fd5b80631aa02d59146100ae57806339732ad4146100c35780635031a93f146100d65780637fa6592f146100e95780638da5cb5b146100fc575b600080fd5b6100c16100bc366004610bbc565b6101b8565b005b6100c16100d1366004610bf1565b610274565b6100c16100e4366004610cf1565b6102e2565b6100c16100f7366004610db1565b6103fd565b60005461010f906001600160a01b031681565b6040516001600160a01b0390911681526020015b60405180910390f35b60035461010f906001600160a01b031681565b61016861014d366004610de4565b6001600160a01b031660009081526001602052604090205490565b604051908152602001610123565b610168610184366004610de4565b610782565b61016860025481565b6100c16101a0366004610de4565b6107f6565b6100c16101b3366004610db1565b610842565b6000546001600160a01b031633146101eb5760405162461bcd60e51b81526004016101e290610dff565b60405180910390fd5b60328111156102335760405162461bcd60e51b81526020600482015260146024820152734665652063616e6e6f742065786365656420352560601b60448201526064016101e2565b60025460408051918252602082018390527f2add06f33981e1ffcda660767486d0cfefcac2c7e4434d844287357decd3a2fa910160405180910390a1600255565b6000546001600160a01b0316331461029e5760405162461bcd60e51b81526004016101e290610dff565b6003546001600160a01b03166102c65760405162461bcd60e51b81526004016101e290610e22565b6001600160a01b03909116600090815260016020526040902055565b6000546001600160a01b0316331461030c5760405162461bcd60e51b81526004016101e290610dff565b6003546001600160a01b03166103345760405162461bcd60e51b81526004016101e290610e22565b805182511461037d5760405162461bcd60e51b8152602060048201526015602482015274082e4e4c2f240d8cadccee8d040dad2e6dac2e8c6d605b1b60448201526064016101e2565b60005b82518110156103f85781818151811061039b5761039b610e4f565b6020026020010151600160008584815181106103b9576103b9610e4f565b60200260200101516001600160a01b03166001600160a01b031681526020019081526020016000208190555080806103f090610e7b565b915050610380565b505050565b6003546001600160a01b03166104255760405162461bcd60e51b81526004016101e290610e22565b6003546001600160a01b03908116908416036104535760405162461bcd60e51b81526004016101e290610e94565b600082116104a35760405162461bcd60e51b815260206004820152601d60248201527f416d6f756e74206d7573742062652067726561746572207468616e203000000060448201526064016101e2565b600081116104c35760405162461bcd60e51b81526004016101e290610edb565b6001600160a01b0383166105115760405162461bcd60e51b8152602060048201526015602482015274496e76616c696420746f6b656e206164647265737360581b60448201526064016101e2565b6003546001600160a01b03808516600090815260016020526040902054859291909116908061057a5760405162461bcd60e51b815260206004820152601560248201527410dd5c9c995b9d081c1c9a58d9481b9bdd081cd95d605a1b60448201526064016101e2565b838111156105d45760405162461bcd60e51b815260206004820152602160248201527f43757272656e742070726963652065786365656473206c696d697420707269636044820152606560f81b60648201526084016101e2565b60006105e08287610f1d565b9050600160006105f08284610f3a565b6040516323b872dd60e01b8152336004820152306024820152604481018290529091506001600160a01b038616906323b872dd906064016020604051808303816000875af1158015610646573d6000803e3d6000fd5b505050506040513d601f19601f8201168201806040525081019061066a9190610f4d565b6106865760405162461bcd60e51b81526004016101e290610f6f565b60405163a9059cbb60e01b8152336004820152602481018990526001600160a01b0387169063a9059cbb906044016020604051808303816000875af11580156106d3573d6000803e3d6000fd5b505050506040513d601f19601f820116820180604052508101906106f79190610f4d565b6107135760405162461bcd60e51b81526004016101e290610fbb565b6001600160a01b03891660008181526001602090815260409182902087905581518b815290810187905290810186905285919033907fc68ace8094b0379d050c91aba76abc225c511fcb2e0fcf4ec19cd298d8331cf6906060015b60405180910390a350505050505050505050565b6040516370a0823160e01b815230600482015260009082906001600160a01b038216906370a0823190602401602060405180830381865afa1580156107cb573d6000803e3d6000fd5b505050506040513d601f19601f820116820180604052508101906107ef9190611002565b9392505050565b6000546001600160a01b031633146108205760405162461bcd60e51b81526004016101e290610dff565b600380546001600160a01b0319166001600160a01b0392909216919091179055565b6003546001600160a01b031661086a5760405162461bcd60e51b81526004016101e290610e22565b6003546001600160a01b03908116908416036108985760405162461bcd60e51b81526004016101e290610e94565b600082116108e85760405162461bcd60e51b815260206004820152601d60248201527f416d6f756e74206d7573742062652067726561746572207468616e203000000060448201526064016101e2565b600081116109085760405162461bcd60e51b81526004016101e290610edb565b6001600160a01b0383166109565760405162461bcd60e51b8152602060048201526015602482015274496e76616c696420746f6b656e206164647265737360581b60448201526064016101e2565b6003546001600160a01b0380851660009081526001602052604090205485929190911690806109bf5760405162461bcd60e51b815260206004820152601560248201527410dd5c9c995b9d081c1c9a58d9481b9bdd081cd95d605a1b60448201526064016101e2565b83811015610a1e5760405162461bcd60e51b815260206004820152602660248201527f43757272656e74207072696365206973206c657373207468616e206c696d697460448201526520707269636560d01b60648201526084016101e2565b6000610a2a8287610f1d565b905060016000610a3a828461101b565b6040516323b872dd60e01b8152336004820152306024820152604481018a90529091506001600160a01b038716906323b872dd906064016020604051808303816000875af1158015610a90573d6000803e3d6000fd5b505050506040513d601f19601f82011682018060405250810190610ab49190610f4d565b610ad05760405162461bcd60e51b81526004016101e290610f6f565b60405163a9059cbb60e01b8152336004820152602481018290526001600160a01b0386169063a9059cbb906044016020604051808303816000875af1158015610b1d573d6000803e3d6000fd5b505050506040513d601f19601f82011682018060405250810190610b419190610f4d565b610b5d5760405162461bcd60e51b81526004016101e290610fbb565b6001600160a01b03891660008181526001602090815260409182902087905581518b815290810187905290810186905285919033907fa93cb8f67a9b3c428f24a2586e65a84bb53459f5cb3da51f9ccbc2002d90cf459060600161076e565b600060208284031215610bce57600080fd5b5035919050565b80356001600160a01b0381168114610bec57600080fd5b919050565b60008060408385031215610c0457600080fd5b610c0d83610bd5565b946020939093013593505050565b634e487b7160e01b600052604160045260246000fd5b604051601f8201601f1916810167ffffffffffffffff81118282101715610c5a57610c5a610c1b565b604052919050565b600067ffffffffffffffff821115610c7c57610c7c610c1b565b5060051b60200190565b600082601f830112610c9757600080fd5b81356020610cac610ca783610c62565b610c31565b82815260059290921b84018101918181019086841115610ccb57600080fd5b8286015b84811015610ce65780358352918301918301610ccf565b509695505050505050565b60008060408385031215610d0457600080fd5b823567ffffffffffffffff80821115610d1c57600080fd5b818501915085601f830112610d3057600080fd5b81356020610d40610ca783610c62565b82815260059290921b84018101918181019089841115610d5f57600080fd5b948201945b83861015610d8457610d7586610bd5565b82529482019490820190610d64565b96505086013592505080821115610d9a57600080fd5b50610da785828601610c86565b9150509250929050565b600080600060608486031215610dc657600080fd5b610dcf84610bd5565b95602085013595506040909401359392505050565b600060208284031215610df657600080fd5b6107ef82610bd5565b6020808252600990820152682737ba1037bbb732b960b91b604082015260600190565b602080825260139082015272141c9a58d9481d1bdad95b881b9bdd081cd95d606a1b604082015260600190565b634e487b7160e01b600052603260045260246000fd5b634e487b7160e01b600052601160045260246000fd5b600060018201610e8d57610e8d610e65565b5060010190565b60208082526027908201527f546f6b656e2063616e6e6f74206265207468652073616d65206173207072696360408201526632903a37b5b2b760c91b606082015260800190565b60208082526022908201527f4c696d6974207072696365206d7573742062652067726561746572207468616e604082015261020360f41b606082015260800190565b8082028115828204841417610f3457610f34610e65565b92915050565b80820180821115610f3457610f34610e65565b600060208284031215610f5f57600080fd5b815180151581146107ef57600080fd5b6020808252602c908201527f5472616e73666572206661696c65642c20636865636b2062616c616e6365206160408201526b6e6420616c6c6f77616e636560a01b606082015260800190565b60208082526027908201527f5472616e73666572206661696c65642c20636865636b20636f6e74726163742060408201526662616c616e636560c81b606082015260800190565b60006020828403121561101457600080fd5b5051919050565b81810381811115610f3457610f34610e6556fea264697066735822122051d6f489232ea3fc6287ce14ea470a8b62411fd2d96f035e5744e0a1a8ce689264736f6c63430008140033",
  "linkReferences": {},
  "deployedLinkReferences": {}
}