{
  "_format": "hh-sol-artifact-1",
  "contractName": "MarketFactory",
  "sourceName": "contracts/MarketFactory.sol",
  "abi": [
    {
      "inputs": [],
      "stateMutability": "nonpayable",
      "type": "constructor"
    },
    {
      "anonymous": false,
      "inputs": [
        {
          "indexed": false,
          "internalType": "uint256",
          "name": "marketId",
          "type": "uint256"
        },
        {
          "indexed": false,
          "internalType": "address",
          "name": "marketAddress",
          "type": "address"
        }
      ],
      "name": "MarketCreated",
      "type": "event"
    },
    {
      "inputs": [
        {
          "internalType": "string",
          "name": "description",
          "type": "string"
        },
        {
          "internalType": "string",
          "name": "marketType",
          "type": "string"
        },
        {
          "internalType": "string[]",
          "name": "options",
          "type": "string[]"
        }
      ],
      "name": "createMarket",
      "outputs": [
        {
          "internalType": "uint256",
          "name": "",
          "type": "uint256"
        }
      ],
      "stateMutability": "nonpayable",
      "type": "function"
    },
    {
      "inputs": [
        {
          "internalType": "uint256",
          "name": "",
          "type": "uint256"
        }
      ],
      "name": "markets",
      "outputs": [
        {
          "internalType": "address",
          "name": "",
          "type": "address"
        }
      ],
      "stateMutability": "view",
      "type": "function"
    },
    {
      "inputs": [],
      "name": "nextMarketId",
      "outputs": [
        {
          "internalType": "uint256",
          "name": "",
          "type": "uint256"
        }
      ],
      "stateMutability": "view",
      "type": "function"
    },
    {
      "inputs": [],
      "name": "owner",
      "outputs": [
        {
          "internalType": "address",
          "name": "",
          "type": "address"
        }
      ],
      "stateMutability": "view",
      "type": "function"
    },
    {
      "inputs": [
        {
          "internalType": "uint256",
          "name": "marketId",
          "type": "uint256"
        },
        {
          "components": [
            {
              "internalType": "string",
              "name": "description",
              "type": "string"
            },
            {
              "internalType": "uint256",
              "name": "currentPrice",
              "type": "uint256"
            },
            {
              "internalType": "uint256",
              "name": "totalLiquidity",
              "type": "uint256"
            },
            {
              "internalType": "bool",
              "name": "resolved",
              "type": "bool"
            },
            {
              "internalType": "string",
              "name": "outcome",
              "type": "string"
            }
          ],
          "internalType": "struct MarketFactory.MarketState",
          "name": "state",
          "type": "tuple"
        }
      ],
      "name": "updateMarketState",
      "outputs": [],
      "stateMutability": "nonpayable",
      "type": "function"
    }
  ],
  "bytecode": "0x608060405234801561001057600080fd5b50600080546001600160a01b03191633179055611564806100326000396000f3fe60806040523480156200001157600080fd5b50600436106200005e5760003560e01c8063406ef2ef14620000635780636be4091814620000805780638da5cb5b14620000995780639b47a7cb14620000c6578063b1283e7714620000dd575b600080fd5b6200006d60015481565b6040519081526020015b60405180910390f35b6200009762000091366004620003f5565b62000109565b005b600054620000ad906001600160a01b031681565b6040516001600160a01b03909116815260200162000077565b6200006d620000d7366004620004ca565b62000231565b620000ad620000ee366004620005e8565b6002602052600090815260409020546001600160a01b031681565b6000546001600160a01b03163314620001555760405162461bcd60e51b81526020600482015260096024820152682737ba1037bbb732b960b91b60448201526064015b60405180910390fd5b6000828152600260205260409020546001600160a01b031680620001af5760405162461bcd60e51b815260206004820152601060248201526f13585c9ad95d081b9bdd08199bdd5b9960821b60448201526064016200014c565b602082015160408084015160608501516080860151925163019f3cb360e61b815285946001600160a01b038616946367cf2cc094620001f7949293909291906004016200064a565b600060405180830381600087803b1580156200021257600080fd5b505af115801562000227573d6000803e3d6000fd5b5050505050505050565b6000808484846040516200024590620002fa565b62000253939291906200067d565b604051809103906000f08015801562000270573d6000803e3d6000fd5b5060018054919250600091908262000288836200070c565b9091555060008181526002602090815260409182902080546001600160a01b0319166001600160a01b0387169081179091558251848152918201529192507fd301e501188d220cc44d05fa5ee3c14454746932c7d6598933e7fddc78bea7f0910160405180910390a195945050505050565b610dfa806200073583390190565b634e487b7160e01b600052604160045260246000fd5b60405160a0810167ffffffffffffffff8111828210171562000344576200034462000308565b60405290565b604051601f8201601f1916810167ffffffffffffffff8111828210171562000376576200037662000308565b604052919050565b600082601f8301126200039057600080fd5b813567ffffffffffffffff811115620003ad57620003ad62000308565b620003c2601f8201601f19166020016200034a565b818152846020838601011115620003d857600080fd5b816020850160208301376000918101602001919091529392505050565b600080604083850312156200040957600080fd5b82359150602083013567ffffffffffffffff808211156200042957600080fd5b9084019060a082870312156200043e57600080fd5b620004486200031e565b8235828111156200045857600080fd5b62000466888286016200037e565b8252506020830135602082015260408301356040820152606083013580151581146200049157600080fd5b6060820152608083013582811115620004a957600080fd5b620004b7888286016200037e565b6080830152508093505050509250929050565b600080600060608486031215620004e057600080fd5b833567ffffffffffffffff80821115620004f957600080fd5b62000507878388016200037e565b94506020915081860135818111156200051f57600080fd5b6200052d888289016200037e565b9450506040860135818111156200054357600080fd5b8601601f810188136200055557600080fd5b8035828111156200056a576200056a62000308565b8060051b6200057b8582016200034a565b918252828101850191858101908b8411156200059657600080fd5b86850192505b83831015620005d757823586811115620005b65760008081fd5b620005c68d89838901016200037e565b83525091860191908601906200059c565b809750505050505050509250925092565b600060208284031215620005fb57600080fd5b5035919050565b6000815180845260005b818110156200062a576020818501810151868301820152016200060c565b506000602082860101526020601f19601f83011685010191505092915050565b848152836020820152821515604082015260806060820152600062000673608083018462000602565b9695505050505050565b60608152600062000692606083018662000602565b602083820381850152620006a7828762000602565b915083820360408501528185518084528284019150828160051b85010183880160005b83811015620006fc57601f19878403018552620006e983835162000602565b94860194925090850190600101620006ca565b50909a9950505050505050505050565b6000600182016200072d57634e487b7160e01b600052601160045260246000fd5b506001019056fe60806040523480156200001157600080fd5b5060405162000dfa38038062000dfa8339810160408190526200003491620002cb565b600080546001600160a01b031916331781556040805160e0810182528581526020808201869052818301859052606082018490526080820184905260a08201849052825190810190925291815260c08201528051600190819062000099908262000477565b5060208201516001820190620000b0908262000477565b5060408201518051620000ce9160028401916020909101906200011e565b50606082015160038201556080820151600482015560a082015160058201805460ff191691151591909117905560c0820151600682019062000111908262000477565b5090505050505062000543565b82805482825590600052602060002090810192821562000169579160200282015b8281111562000169578251829062000158908262000477565b50916020019190600101906200013f565b50620001779291506200017b565b5090565b80821115620001775760006200019282826200019c565b506001016200017b565b508054620001aa90620003e8565b6000825580601f10620001bb575050565b601f016020900490600052602060002090810190620001db9190620001de565b50565b5b80821115620001775760008155600101620001df565b634e487b7160e01b600052604160045260246000fd5b604051601f8201601f191681016001600160401b0381118282101715620002365762000236620001f5565b604052919050565b600082601f8301126200025057600080fd5b81516001600160401b038111156200026c576200026c620001f5565b602062000282601f8301601f191682016200020b565b82815285828487010111156200029757600080fd5b60005b83811015620002b75785810183015182820184015282016200029a565b506000928101909101919091529392505050565b600080600060608486031215620002e157600080fd5b83516001600160401b0380821115620002f957600080fd5b62000307878388016200023e565b94506020915081860151818111156200031f57600080fd5b6200032d888289016200023e565b9450506040860151818111156200034357600080fd5b8601601f810188136200035557600080fd5b8051828111156200036a576200036a620001f5565b8060051b6200037b8582016200020b565b918252828101850191858101908b8411156200039657600080fd5b86850192505b83831015620003d757825186811115620003b65760008081fd5b620003c68d89838901016200023e565b83525091860191908601906200039c565b809750505050505050509250925092565b600181811c90821680620003fd57607f821691505b6020821081036200041e57634e487b7160e01b600052602260045260246000fd5b50919050565b601f8211156200047257600081815260208120601f850160051c810160208610156200044d5750805b601f850160051c820191505b818110156200046e5782815560010162000459565b5050505b505050565b81516001600160401b03811115620004935762000493620001f5565b620004ab81620004a48454620003e8565b8462000424565b602080601f831160018114620004e35760008415620004ca5750858301515b600019600386901b1c1916600185901b1785556200046e565b600085815260208120601f198616915b828110156200051457888601518255948401946001909101908401620004f3565b5085821015620005335787850151600019600388901b60f8161c191681555b5050505050600190811b01905550565b6108a780620005536000396000f3fe608060405234801561001057600080fd5b50600436106100575760003560e01c806367cf2cc01461005c57806380f55605146100715780638da5cb5b14610094578063b68eb460146100bf578063e7b1797514610109575b600080fd5b61006f61006a3660046104e8565b61011c565b005b610079610192565b60405161008b969594939291906105a0565b60405180910390f35b6000546100a7906001600160a01b031681565b6040516001600160a01b03909116815260200161008b565b6100fb6100cd3660046105fa565b6008602090815260009283526040909220815180830184018051928152908401929093019190912091525481565b60405190815260200161008b565b61006f610117366004610656565b61035b565b6000546001600160a01b031633146101675760405162461bcd60e51b81526020600482015260096024820152682737ba1037bbb732b960b91b60448201526064015b60405180910390fd5b600484905560058390556006805460ff1916831515179055600761018b828261072d565b5050505050565b6001805481906101a1906106a4565b80601f01602080910402602001604051908101604052809291908181526020018280546101cd906106a4565b801561021a5780601f106101ef5761010080835404028352916020019161021a565b820191906000526020600020905b8154815290600101906020018083116101fd57829003601f168201915b50505050509080600101805461022f906106a4565b80601f016020809104026020016040519081016040528092919081815260200182805461025b906106a4565b80156102a85780601f1061027d576101008083540402835291602001916102a8565b820191906000526020600020905b81548152906001019060200180831161028b57829003601f168201915b5050506003840154600485015460058601546006870180549697939692955060ff9091169350906102d8906106a4565b80601f0160208091040260200160405190810160405280929190818152602001828054610304906106a4565b80156103515780601f1061032657610100808354040283529160200191610351565b820191906000526020600020905b81548152906001019060200180831161033457829003601f168201915b5050505050905086565b60065460ff16156103a35760405162461bcd60e51b815260206004820152601260248201527113585c9ad95d081a5cc81c995cdbdb1d995960721b604482015260640161015e565b336000908152600860205260409081902090518391906103c49086906107ed565b908152602001604051809103902060008282546103e19190610809565b9091555050600580548391906000906103fb908490610809565b90915550506040517f67ffcf165e303e08af6b15e3d1415739b26806a78f61f0ae0fb52e1236fdfffe906104389033908690869086904290610830565b60405180910390a1505050565b634e487b7160e01b600052604160045260246000fd5b600082601f83011261046c57600080fd5b813567ffffffffffffffff8082111561048757610487610445565b604051601f8301601f19908116603f011681019082821181831017156104af576104af610445565b816040528381528660208588010111156104c857600080fd5b836020870160208301376000602085830101528094505050505092915050565b600080600080608085870312156104fe57600080fd5b84359350602085013592506040850135801515811461051c57600080fd5b9150606085013567ffffffffffffffff81111561053857600080fd5b6105448782880161045b565b91505092959194509250565b60005b8381101561056b578181015183820152602001610553565b50506000910152565b6000815180845261058c816020860160208601610550565b601f01601f19169290920160200192915050565b60c0815260006105b360c0830189610574565b82810360208401526105c58189610574565b9050866040840152856060840152841515608084015282810360a08401526105ed8185610574565b9998505050505050505050565b6000806040838503121561060d57600080fd5b82356001600160a01b038116811461062457600080fd5b9150602083013567ffffffffffffffff81111561064057600080fd5b61064c8582860161045b565b9150509250929050565b60008060006060848603121561066b57600080fd5b833567ffffffffffffffff81111561068257600080fd5b61068e8682870161045b565b9660208601359650604090950135949350505050565b600181811c908216806106b857607f821691505b6020821081036106d857634e487b7160e01b600052602260045260246000fd5b50919050565b601f82111561072857600081815260208120601f850160051c810160208610156107055750805b601f850160051c820191505b8181101561072457828155600101610711565b5050505b505050565b815167ffffffffffffffff81111561074757610747610445565b61075b8161075584546106a4565b846106de565b602080601f83116001811461079057600084156107785750858301515b600019600386901b1c1916600185901b178555610724565b600085815260208120601f198616915b828110156107bf578886015182559484019460019091019084016107a0565b50858210156107dd5787850151600019600388901b60f8161c191681555b5050505050600190811b01905550565b600082516107ff818460208701610550565b9190910192915050565b8082018082111561082a57634e487b7160e01b600052601160045260246000fd5b92915050565b6001600160a01b038616815260a06020820181905260009061085490830187610574565b60408301959095525060608101929092526080909101529291505056fea2646970667358221220cd16b50a8033db24c34f360764c7fa3092263623ff375db526846f9a7cea4cef64736f6c63430008140033a2646970667358221220ff2b13b5b329f0e1ae591d5f5730eba5c06a45f8f94ada187750af7bbfe60d6364736f6c63430008140033",
  "linkReferences": {},
  "deployedLinkReferences": {}
}