{
  "_format": "hh-sol-artifact-1",
  "contractName": "EnvironmentBridge",
  "sourceName": "contracts/EnvironmentBridge.sol",
  "abi": [
    {
      "inputs": [
        {
          "internalType": "address",
          "name": "_factory",
          "type": "address"
        }
      ],
      "stateMutability": "nonpayable",
      "type": "constructor"
    },
    {
      "anonymous": false,
      "inputs": [
        {
          "indexed": false,
          "internalType": "uint256",
          "name": "round",
          "type": "uint256"
        },
        {
          "indexed": false,
          "internalType": "uint256[]",
          "name": "marketIds",
          "type": "uint256[]"
        },
        {
          "components": [
            {
              "internalType": "string",
              "name": "description",
              "type": "string"
            },
            {
              "internalType": "uint256",
              "name": "currentPrice",
              "type": "uint256"
            },
            {
              "internalType": "uint256",
              "name": "totalLiquidity",
              "type": "uint256"
            },
            {
              "internalType": "bool",
              "name": "resolved",
              "type": "bool"
            },
            {
              "internalType": "string",
              "name": "outcome",
              "type": "string"
            }
          ],
          "indexed": false,
          "internalType": "struct EnvironmentBridge.MarketState[]",
          "name": "states",
          "type": "tuple[]"
        }
      ],
      "name": "EnvironmentStateUpdated",
      "type": "event"
    },
    {
      "inputs": [],
      "name": "factory",
      "outputs": [
        {
          "internalType": "contract MarketFactory",
          "name": "",
          "type": "address"
        }
      ],
      "stateMutability": "view",
      "type": "function"
    },
    {
      "inputs": [],
      "name": "owner",
      "outputs": [
        {
          "internalType": "address",
          "name": "",
          "type": "address"
        }
      ],
      "stateMutability": "view",
      "type": "function"
    },
    {
      "inputs": [
        {
          "internalType": "uint256",
          "name": "round",
          "type": "uint256"
        },
        {
          "internalType": "uint256[]",
          "name": "marketIds",
          "type": "uint256[]"
        },
        {
          "components": [
            {
              "internalType": "string",
              "name": "description",
              "type": "string"
            },
            {
              "internalType": "uint256",
              "name": "currentPrice",
              "type": "uint256"
            },
            {
              "internalType": "uint256",
              "name": "totalLiquidity",
              "type": "uint256"
            },
            {
              "internalType": "bool",
              "name": "resolved",
              "type": "bool"
            },
            {
              "internalType": "string",
              "name": "outcome",
              "type": "string"
            }
          ],
          "internalType": "struct EnvironmentBridge.MarketState[]",
          "name": "states",
          "type": "tuple[]"
        }
      ],
      "name": "syncEnvironmentState",
      "outputs": [],
      "stateMutability": "nonpayable",
      "type": "function"
    }
  ],
  "bytecode": "0x608060405234801561001057600080fd5b5060405161065638038061065683398101604081905261002f91610062565b60008054336001600160a01b031991821617909155600180549091166001600160a01b0392909216919091179055610092565b60006020828403121561007457600080fd5b81516001600160a01b038116811461008b57600080fd5b9392505050565b6105b5806100a16000396000f3fe608060405234801561001057600080fd5b50600436106100415760003560e01c80635f091329146100465780638da5cb5b1461005b578063c45a01551461008a575b600080fd5b61005961005436600461038d565b61009d565b005b60005461006e906001600160a01b031681565b6040516001600160a01b03909116815260200160405180910390f35b60015461006e906001600160a01b031681565b6000546001600160a01b031633146100e85760405162461bcd60e51b81526020600482015260096024820152682737ba1037bbb732b960b91b60448201526064015b60405180910390fd5b805182511461012b5760405162461bcd60e51b815260206004820152600f60248201526e098cadccee8d040dad2e6dac2e8c6d608b1b60448201526064016100df565b7f610096a453739670213b73dc6307e5849454d6b7a0265c1f22080f26d2b255a283838360405161015e93929190610497565b60405180910390a1505050565b634e487b7160e01b600052604160045260246000fd5b60405160a0810167ffffffffffffffff811182821017156101a4576101a461016b565b60405290565b604051601f8201601f1916810167ffffffffffffffff811182821017156101d3576101d361016b565b604052919050565b600067ffffffffffffffff8211156101f5576101f561016b565b5060051b60200190565b600082601f83011261021057600080fd5b813567ffffffffffffffff81111561022a5761022a61016b565b61023d601f8201601f19166020016101aa565b81815284602083860101111561025257600080fd5b816020850160208301376000918101602001919091529392505050565b600082601f83011261028057600080fd5b81356020610295610290836101db565b6101aa565b82815260059290921b840181019181810190868411156102b457600080fd5b8286015b8481101561038257803567ffffffffffffffff808211156102d95760008081fd5b9088019060a0828b03601f19018113156102f35760008081fd5b6102fb610181565b878401358381111561030d5760008081fd5b61031b8d8a838801016101ff565b8252506040808501358983015260608086013582840152608091508186013580151581146103495760008081fd5b908301529184013591838311156103605760008081fd5b61036e8d8a858801016101ff565b9082015286525050509183019183016102b8565b509695505050505050565b6000806000606084860312156103a257600080fd5b8335925060208085013567ffffffffffffffff808211156103c257600080fd5b818701915087601f8301126103d657600080fd5b81356103e4610290826101db565b81815260059190911b8301840190848101908a83111561040357600080fd5b938501935b8285101561042157843582529385019390850190610408565b96505050604087013592508083111561043957600080fd5b50506104478682870161026f565b9150509250925092565b6000815180845260005b818110156104775760208185018101518683018201520161045b565b506000602082860101526020601f19601f83011685010191505092915050565b600060608083018684526020828186015281875180845260809350838701915082890160005b828110156104d9578151845292840192908401906001016104bd565b5050506040868203818801528188518084528484019150848160051b850101858b0160005b8381101561056c57601f19878403018552815160a0815181865261052482870182610451565b915050898201518a86015287820151888601528b82015115158c8601528a82015191508481038b8601526105588183610451565b968a019694505050908701906001016104fe565b50909d9c5050505050505050505050505056fea2646970667358221220eebd2ebf8550b028a66a2451f62f55eefee2f05a011d719b6bb3388743757b1964736f6c63430008140033",
  "linkReferences": {},
  "deployedLinkReferences": {}
}