{
  "_format": "hh-sol-artifact-1",
  "contractName": "AutoAdjustOrderBook",
  "sourceName": "contracts/AutoAdjustOrderBook.sol",
  "abi": [
    {
      "inputs": [],
      "stateMutability": "nonpayable",
      "type": "constructor"
    },
    {
      "anonymous": false,
      "inputs": [
        {
          "indexed": true,
          "internalType": "address",
          "name": "user",
          "type": "address"
        },
        {
          "indexed": true,
          "internalType": "address",
          "name": "token",
          "type": "address"
        },
        {
          "indexed": false,
          "internalType": "uint256",
          "name": "amount",
          "type": "uint256"
        }
      ],
      "name": "Deposit",
      "type": "event"
    },
    {
      "anonymous": false,
      "inputs": [
        {
          "indexed": false,
          "internalType": "uint256",
          "name": "oldFee",
          "type": "uint256"
        },
        {
          "indexed": false,
          "internalType": "uint256",
          "name": "newFee",
          "type": "uint256"
        }
      ],
      "name": "FeeUpdate",
      "type": "event"
    },
    {
      "anonymous": false,
      "inputs": [
        {
          "indexed": true,
          "internalType": "address",
          "name": "user",
          "type": "address"
        },
        {
          "indexed": true,
          "internalType": "address",
          "name": "sourceToken",
          "type": "address"
        },
        {
          "indexed": true,
          "internalType": "address",
          "name": "targetToken",
          "type": "address"
        },
        {
          "indexed": false,
          "internalType": "uint256",
          "name": "sourceAmount",
          "type": "uint256"
        },
        {
          "indexed": false,
          "internalType": "uint256",
          "name": "targetAmount",
          "type": "uint256"
        }
      ],
      "name": "Swap",
      "type": "event"
    },
    {
      "anonymous": false,
      "inputs": [
        {
          "indexed": true,
          "internalType": "address",
          "name": "user",
          "type": "address"
        },
        {
          "indexed": true,
          "internalType": "address",
          "name": "token",
          "type": "address"
        },
        {
          "indexed": false,
          "internalType": "uint256",
          "name": "amount",
          "type": "uint256"
        }
      ],
      "name": "Withdrawal",
      "type": "event"
    },
    {
      "inputs": [
        {
          "internalType": "address",
          "name": "token_address",
          "type": "address"
        },
        {
          "internalType": "uint256",
          "name": "amount",
          "type": "uint256"
        }
      ],
      "name": "deposit",
      "outputs": [],
      "stateMutability": "nonpayable",
      "type": "function"
    },
    {
      "inputs": [],
      "name": "fee",
      "outputs": [
        {
          "internalType": "uint256",
          "name": "",
          "type": "uint256"
        }
      ],
      "stateMutability": "view",
      "type": "function"
    },
    {
      "inputs": [
        {
          "internalType": "address",
          "name": "sell_token_address",
          "type": "address"
        },
        {
          "internalType": "address",
          "name": "buy_token_address",
          "type": "address"
        }
      ],
      "name": "get_price",
      "outputs": [
        {
          "internalType": "uint256",
          "name": "",
          "type": "uint256"
        }
      ],
      "stateMutability": "view",
      "type": "function"
    },
    {
      "inputs": [
        {
          "internalType": "address",
          "name": "",
          "type": "address"
        },
        {
          "internalType": "address",
          "name": "",
          "type": "address"
        }
      ],
      "name": "individual_liquidity",
      "outputs": [
        {
          "internalType": "uint256",
          "name": "",
          "type": "uint256"
        }
      ],
      "stateMutability": "view",
      "type": "function"
    },
    {
      "inputs": [],
      "name": "owner",
      "outputs": [
        {
          "internalType": "address",
          "name": "",
          "type": "address"
        }
      ],
      "stateMutability": "view",
      "type": "function"
    },
    {
      "inputs": [
        {
          "internalType": "uint256",
          "name": "new_fee",
          "type": "uint256"
        }
      ],
      "name": "set_fee",
      "outputs": [],
      "stateMutability": "nonpayable",
      "type": "function"
    },
    {
      "inputs": [
        {
          "internalType": "address",
          "name": "source_token_address",
          "type": "address"
        },
        {
          "internalType": "uint256",
          "name": "source_token_amount",
          "type": "uint256"
        },
        {
          "internalType": "address",
          "name": "target_token_address",
          "type": "address"
        }
      ],
      "name": "swap",
      "outputs": [],
      "stateMutability": "nonpayable",
      "type": "function"
    },
    {
      "inputs": [
        {
          "internalType": "address",
          "name": "",
          "type": "address"
        }
      ],
      "name": "total_pool_balance",
      "outputs": [
        {
          "internalType": "uint256",
          "name": "",
          "type": "uint256"
        }
      ],
      "stateMutability": "view",
      "type": "function"
    },
    {
      "inputs": [
        {
          "internalType": "address",
          "name": "token_address",
          "type": "address"
        }
      ],
      "name": "withdraw",
      "outputs": [],
      "stateMutability": "nonpayable",
      "type": "function"
    }
  ],
  "bytecode": "0x6080604052600160035534801561001557600080fd5b50600080546001600160a01b03191633179055610c1f806100376000396000f3fe608060405234801561001057600080fd5b50600436106100935760003560e01c806362ed42fa1161006657806362ed42fa146101115780636d069a67146101315780638da5cb5b146101445780639d299bfe1461016f578063ddca3f431461018257600080fd5b80630babfaf3146100985780631aa02d59146100d657806347e7ef24146100eb57806351cff8d9146100fe575b600080fd5b6100c36100a6366004610a7e565b600160209081526000928352604080842090915290825290205481565b6040519081526020015b60405180910390f35b6100e96100e4366004610ab1565b61018b565b005b6100e96100f9366004610aca565b61025f565b6100e961010c366004610af4565b610491565b6100c361011f366004610af4565b60026020526000908152604090205481565b6100e961013f366004610b16565b610632565b600054610157906001600160a01b031681565b6040516001600160a01b0390911681526020016100cd565b6100c361017d366004610a7e565b6109c0565b6100c360035481565b6000546001600160a01b031633146101d65760405162461bcd60e51b81526020600482015260096024820152682737ba1037bbb732b960b91b60448201526064015b60405180910390fd5b603281111561021e5760405162461bcd60e51b81526020600482015260146024820152734665652063616e6e6f742065786365656420352560601b60448201526064016101cd565b60035460408051918252602082018390527f2add06f33981e1ffcda660767486d0cfefcac2c7e4434d844287357decd3a2fa910160405180910390a1600355565b600081116102af5760405162461bcd60e51b815260206004820152601d60248201527f416d6f756e74206d7573742062652067726561746572207468616e203000000060448201526064016101cd565b6001600160a01b0382166102fd5760405162461bcd60e51b8152602060048201526015602482015274496e76616c696420746f6b656e206164647265737360581b60448201526064016101cd565b3360009081526001602090815260408083206001600160a01b03861684529091529020548290156103315761033183610491565b6040516323b872dd60e01b8152336004820152306024820152604481018390526001600160a01b038216906323b872dd906064016020604051808303816000875af1158015610384573d6000803e3d6000fd5b505050506040513d601f19601f820116820180604052508101906103a89190610b52565b6103e65760405162461bcd60e51b815260206004820152600f60248201526e151c985b9cd9995c8819985a5b1959608a1b60448201526064016101cd565b3360009081526001602090815260408083206001600160a01b038716845290915281208054849290610419908490610b8a565b90915550506001600160a01b03831660009081526002602052604081208054849290610446908490610b8a565b90915550506040518281526001600160a01b0384169033907f5548c837ab068cf56a2c2479df0882a4922fd203edb7517321831d95078c5f62906020015b60405180910390a3505050565b3360009081526001602090815260408083206001600160a01b0385168452909152902054806105025760405162461bcd60e51b815260206004820152601860248201527f4e6f206c697175696469747920746f207769746864726177000000000000000060448201526064016101cd565b3360009081526001602090815260408083206001600160a01b0386168452825280832083905560029091528120805483929061053f908490610b9d565b909155505060405163a9059cbb60e01b81523360048201526024810182905282906001600160a01b0382169063a9059cbb906044016020604051808303816000875af1158015610593573d6000803e3d6000fd5b505050506040513d601f19601f820116820180604052508101906105b79190610b52565b6105f55760405162461bcd60e51b815260206004820152600f60248201526e151c985b9cd9995c8819985a5b1959608a1b60448201526064016101cd565b6040518281526001600160a01b0384169033907f2717ead6b9200dd235aad468c9809ea400fe33ac69b5bfaa6d3e90fc922b639890602001610484565b600082116106825760405162461bcd60e51b815260206004820152601d60248201527f416d6f756e74206d7573742062652067726561746572207468616e203000000060448201526064016101cd565b806001600160a01b0316836001600160a01b0316036106dc5760405162461bcd60e51b815260206004820152601660248201527521b0b73737ba1039bbb0b81039b0b6b2903a37b5b2b760511b60448201526064016101cd565b60006106e884836109c0565b90506000670de0b6b3a76400006106ff8386610bb0565b6107099190610bc7565b905060006103e86003548361071e9190610bb0565b6107289190610bc7565b905060006107368284610b9d565b6001600160a01b03861660009081526002602052604090205490915081111561079a5760405162461bcd60e51b8152602060048201526016602482015275496e73756666696369656e74206c697175696469747960501b60448201526064016101cd565b6040516323b872dd60e01b815233600482015230602482015260448101879052879086906001600160a01b038316906323b872dd906064016020604051808303816000875af11580156107f1573d6000803e3d6000fd5b505050506040513d601f19601f820116820180604052508101906108159190610b52565b61085a5760405162461bcd60e51b815260206004820152601660248201527514dbdd5c98d9481d1c985b9cd9995c8819985a5b195960521b60448201526064016101cd565b60405163a9059cbb60e01b8152336004820152602481018490526001600160a01b0382169063a9059cbb906044016020604051808303816000875af11580156108a7573d6000803e3d6000fd5b505050506040513d601f19601f820116820180604052508101906108cb9190610b52565b6109105760405162461bcd60e51b815260206004820152601660248201527515185c99d95d081d1c985b9cd9995c8819985a5b195960521b60448201526064016101cd565b6001600160a01b038916600090815260026020526040812080548a9290610938908490610b8a565b90915550506001600160a01b03871660009081526002602052604081208054859290610965908490610b9d565b909155505060408051898152602081018590526001600160a01b03808a1692908c169133917fcd3829a3813dc3cdd188fd3d01dcf3268c16be2fdd2dd21d0665418816e46062910160405180910390a4505050505050505050565b6001600160a01b0380831660009081526002602052604080822054928416825281205490919081158015906109f55750600081115b610a3a5760405162461bcd60e51b8152602060048201526016602482015275496e73756666696369656e74206c697175696469747960501b60448201526064016101cd565b81610a4d82670de0b6b3a7640000610bb0565b610a579190610bc7565b925050505b92915050565b80356001600160a01b0381168114610a7957600080fd5b919050565b60008060408385031215610a9157600080fd5b610a9a83610a62565b9150610aa860208401610a62565b90509250929050565b600060208284031215610ac357600080fd5b5035919050565b60008060408385031215610add57600080fd5b610ae683610a62565b946020939093013593505050565b600060208284031215610b0657600080fd5b610b0f82610a62565b9392505050565b600080600060608486031215610b2b57600080fd5b610b3484610a62565b925060208401359150610b4960408501610a62565b90509250925092565b600060208284031215610b6457600080fd5b81518015158114610b0f57600080fd5b634e487b7160e01b600052601160045260246000fd5b80820180821115610a5c57610a5c610b74565b81810381811115610a5c57610a5c610b74565b8082028115828204841417610a5c57610a5c610b74565b600082610be457634e487b7160e01b600052601260045260246000fd5b50049056fea2646970667358221220df7dd8da114997742d0c124bc63d5f6099046f5ed865f1d0de2b962569f8df7864736f6c63430008140033",
  "linkReferences": {},
  "deployedLinkReferences": {}
}